{
  "abi": [
    {
      "anonymous": false,
      "inputs": [
        {
          "indexed": false,
          "internalType": "address",
          "name": "caller",
          "type": "address"
        },
        {
          "indexed": false,
          "internalType": "uint256",
          "name": "amount",
          "type": "uint256"
        },
        {
          "indexed": false,
          "internalType": "string",
          "name": "message",
          "type": "string"
        }
      ],
      "name": "Received",
      "type": "event"
    },
    {
      "stateMutability": "payable",
      "type": "fallback"
    },
    {
      "inputs": [
        {
          "internalType": "string",
          "name": "_message",
          "type": "string"
        },
        {
          "internalType": "uint256",
          "name": "_x",
          "type": "uint256"
        }
      ],
      "name": "foo",
      "outputs": [
        {
          "internalType": "uint256",
          "name": "",
          "type": "uint256"
        }
      ],
      "stateMutability": "payable",
      "type": "function"
    }
  ],
  "devdoc": {
    "kind": "dev",
    "methods": {},
    "version": 1
  },
  "evm": {
    "assembly": "    /* \"__contract__.sol\":112:489  contract Receiver {... */\n  mstore(0x40, 0x80)\n  callvalue\n  dup1\n  iszero\n  tag_1\n  jumpi\n  0x00\n  dup1\n  revert\ntag_1:\n  pop\n  dataSize(sub_0)\n  dup1\n  dataOffset(sub_0)\n  0x00\n  codecopy\n  0x00\n  return\nstop\n\nsub_0: assembly {\n        /* \"__contract__.sol\":112:489  contract Receiver {... */\n      mstore(0x40, 0x80)\n      jumpi(tag_1, lt(calldatasize, 0x04))\n      shr(0xe0, calldataload(0x00))\n      dup1\n      0x24ccab8f\n      eq\n      tag_3\n      jumpi\n    tag_1:\n        /* \"__contract__.sol\":249:303  Received(msg.sender, msg.value, \"Fallback was called\") */\n      0x40\n      dup1\n      mload\n        /* \"__contract__.sol\":258:268  msg.sender */\n      caller\n        /* \"#utility.yul\":254:305   */\n      dup2\n      mstore\n        /* \"__contract__.sol\":270:279  msg.value */\n      callvalue\n        /* \"#utility.yul\":336:338   */\n      0x20\n        /* \"#utility.yul\":321:339   */\n      dup3\n      add\n        /* \"#utility.yul\":314:348   */\n      mstore\n        /* \"#utility.yul\":384:386   */\n      0x60\n        /* \"#utility.yul\":364:382   */\n      dup2\n      dup4\n      add\n        /* \"#utility.yul\":357:387   */\n      dup2\n      swap1\n      mstore\n        /* \"#utility.yul\":423:425   */\n      0x13\n        /* \"#utility.yul\":403:421   */\n      swap1\n      dup3\n      add\n        /* \"#utility.yul\":396:426   */\n      mstore\n      shl(0x6a, 0x11985b1b189858dac81dd85cc818d85b1b1959)\n        /* \"#utility.yul\":457:460   */\n      0x80\n        /* \"#utility.yul\":442:461   */\n      dup3\n      add\n        /* \"#utility.yul\":435:485   */\n      mstore\n        /* \"__contract__.sol\":249:303  Received(msg.sender, msg.value, \"Fallback was called\") */\n      swap1\n      mload\n      0x59e04c3f0d44b7caf6e8ef854b61d9a51cf1960d7a88ff6356cc5e946b4b5832\n      swap2\n      dup2\n      swap1\n      sub\n        /* \"#utility.yul\":292:295   */\n      0xa0\n        /* \"__contract__.sol\":249:303  Received(msg.sender, msg.value, \"Fallback was called\") */\n      add\n      swap1\n      log1\n        /* \"__contract__.sol\":112:489  contract Receiver {... */\n      stop\n        /* \"__contract__.sol\":319:486  function foo(string memory _message, uint _x) public payable returns (uint) {... */\n    tag_3:\n      tag_8\n      tag_9\n      calldatasize\n      0x04\n      tag_10\n      jump\t// in\n    tag_9:\n      tag_11\n      jump\t// in\n    tag_8:\n      mload(0x40)\n        /* \"#utility.yul\":1815:1840   */\n      swap1\n      dup2\n      mstore\n        /* \"#utility.yul\":1803:1805   */\n      0x20\n        /* \"#utility.yul\":1788:1806   */\n      add\n        /* \"__contract__.sol\":319:486  function foo(string memory _message, uint _x) public payable returns (uint) {... */\n      mload(0x40)\n      dup1\n      swap2\n      sub\n      swap1\n      return\n    tag_11:\n        /* \"__contract__.sol\":389:393  uint */\n      0x00\n        /* \"__contract__.sol\":411:452  Received(msg.sender, msg.value, _message) */\n      0x59e04c3f0d44b7caf6e8ef854b61d9a51cf1960d7a88ff6356cc5e946b4b5832\n        /* \"__contract__.sol\":420:430  msg.sender */\n      caller\n        /* \"__contract__.sol\":432:441  msg.value */\n      callvalue\n        /* \"__contract__.sol\":443:451  _message */\n      dup6\n        /* \"__contract__.sol\":411:452  Received(msg.sender, msg.value, _message) */\n      mload(0x40)\n      tag_15\n      swap4\n      swap3\n      swap2\n      swap1\n      tag_16\n      jump\t// in\n    tag_15:\n      mload(0x40)\n      dup1\n      swap2\n      sub\n      swap1\n      log1\n        /* \"__contract__.sol\":472:478  _x + 1 */\n      tag_17\n        /* \"__contract__.sol\":472:474  _x */\n      dup3\n        /* \"__contract__.sol\":477:478  1 */\n      0x01\n        /* \"__contract__.sol\":472:478  _x + 1 */\n      tag_18\n      jump\t// in\n    tag_17:\n        /* \"__contract__.sol\":465:478  return _x + 1 */\n      swap4\n        /* \"__contract__.sol\":319:486  function foo(string memory _message, uint _x) public payable returns (uint) {... */\n      swap3\n      pop\n      pop\n      pop\n      jump\t// out\n        /* \"#utility.yul\":532:659   */\n    tag_19:\n        /* \"#utility.yul\":593:603   */\n      0x4e487b71\n        /* \"#utility.yul\":588:591   */\n      0xe0\n        /* \"#utility.yul\":584:604   */\n      shl\n        /* \"#utility.yul\":581:582   */\n      0x00\n        /* \"#utility.yul\":574:605   */\n      mstore\n        /* \"#utility.yul\":624:628   */\n      0x41\n        /* \"#utility.yul\":621:622   */\n      0x04\n        /* \"#utility.yul\":614:629   */\n      mstore\n        /* \"#utility.yul\":648:652   */\n      0x24\n        /* \"#utility.yul\":645:646   */\n      0x00\n        /* \"#utility.yul\":638:653   */\n      revert\n        /* \"#utility.yul\":664:1664   */\n    tag_10:\n        /* \"#utility.yul\":742:748   */\n      0x00\n        /* \"#utility.yul\":750:756   */\n      dup1\n        /* \"#utility.yul\":803:805   */\n      0x40\n        /* \"#utility.yul\":791:800   */\n      dup4\n        /* \"#utility.yul\":782:789   */\n      dup6\n        /* \"#utility.yul\":778:801   */\n      sub\n        /* \"#utility.yul\":774:806   */\n      slt\n        /* \"#utility.yul\":771:823   */\n      iszero\n      tag_24\n      jumpi\n        /* \"#utility.yul\":819:820   */\n      0x00\n        /* \"#utility.yul\":816:817   */\n      dup1\n        /* \"#utility.yul\":809:821   */\n      revert\n        /* \"#utility.yul\":771:823   */\n    tag_24:\n        /* \"#utility.yul\":859:868   */\n      dup3\n        /* \"#utility.yul\":846:869   */\n      calldataload\n        /* \"#utility.yul\":888:906   */\n      0xffffffffffffffff\n        /* \"#utility.yul\":929:931   */\n      dup1\n        /* \"#utility.yul\":921:927   */\n      dup3\n        /* \"#utility.yul\":918:932   */\n      gt\n        /* \"#utility.yul\":915:949   */\n      iszero\n      tag_25\n      jumpi\n        /* \"#utility.yul\":945:946   */\n      0x00\n        /* \"#utility.yul\":942:943   */\n      dup1\n        /* \"#utility.yul\":935:947   */\n      revert\n        /* \"#utility.yul\":915:949   */\n    tag_25:\n        /* \"#utility.yul\":983:989   */\n      dup2\n        /* \"#utility.yul\":972:981   */\n      dup6\n        /* \"#utility.yul\":968:990   */\n      add\n        /* \"#utility.yul\":958:990   */\n      swap2\n      pop\n        /* \"#utility.yul\":1028:1035   */\n      dup6\n        /* \"#utility.yul\":1021:1025   */\n      0x1f\n        /* \"#utility.yul\":1017:1019   */\n      dup4\n        /* \"#utility.yul\":1013:1026   */\n      add\n        /* \"#utility.yul\":1009:1036   */\n      slt\n        /* \"#utility.yul\":999:1054   */\n      tag_26\n      jumpi\n        /* \"#utility.yul\":1050:1051   */\n      0x00\n        /* \"#utility.yul\":1047:1048   */\n      dup1\n        /* \"#utility.yul\":1040:1052   */\n      revert\n        /* \"#utility.yul\":999:1054   */\n    tag_26:\n        /* \"#utility.yul\":1086:1088   */\n      dup2\n        /* \"#utility.yul\":1073:1089   */\n      calldataload\n        /* \"#utility.yul\":1108:1110   */\n      dup2\n        /* \"#utility.yul\":1104:1106   */\n      dup2\n        /* \"#utility.yul\":1101:1111   */\n      gt\n        /* \"#utility.yul\":1098:1134   */\n      iszero\n      tag_28\n      jumpi\n        /* \"#utility.yul\":1114:1132   */\n      tag_28\n      tag_19\n      jump\t// in\n    tag_28:\n        /* \"#utility.yul\":1189:1191   */\n      0x40\n        /* \"#utility.yul\":1183:1192   */\n      mload\n        /* \"#utility.yul\":1157:1159   */\n      0x1f\n        /* \"#utility.yul\":1243:1256   */\n      dup3\n      add\n      not(0x1f)\n        /* \"#utility.yul\":1239:1261   */\n      swap1\n      dup2\n      and\n        /* \"#utility.yul\":1263:1265   */\n      0x3f\n        /* \"#utility.yul\":1235:1266   */\n      add\n        /* \"#utility.yul\":1231:1271   */\n      and\n        /* \"#utility.yul\":1219:1272   */\n      dup2\n      add\n      swap1\n        /* \"#utility.yul\":1287:1305   */\n      dup4\n      dup3\n      gt\n        /* \"#utility.yul\":1307:1329   */\n      dup2\n      dup4\n      lt\n        /* \"#utility.yul\":1284:1330   */\n      or\n        /* \"#utility.yul\":1281:1353   */\n      iszero\n      tag_30\n      jumpi\n        /* \"#utility.yul\":1333:1351   */\n      tag_30\n      tag_19\n      jump\t// in\n    tag_30:\n        /* \"#utility.yul\":1373:1383   */\n      dup2\n        /* \"#utility.yul\":1369:1371   */\n      0x40\n        /* \"#utility.yul\":1362:1384   */\n      mstore\n        /* \"#utility.yul\":1408:1410   */\n      dup3\n        /* \"#utility.yul\":1400:1406   */\n      dup2\n        /* \"#utility.yul\":1393:1411   */\n      mstore\n        /* \"#utility.yul\":1450:1457   */\n      dup9\n        /* \"#utility.yul\":1443:1447   */\n      0x20\n        /* \"#utility.yul\":1438:1440   */\n      dup5\n        /* \"#utility.yul\":1434:1436   */\n      dup8\n        /* \"#utility.yul\":1430:1441   */\n      add\n        /* \"#utility.yul\":1426:1448   */\n      add\n        /* \"#utility.yul\":1423:1458   */\n      gt\n        /* \"#utility.yul\":1420:1475   */\n      iszero\n      tag_31\n      jumpi\n        /* \"#utility.yul\":1471:1472   */\n      0x00\n        /* \"#utility.yul\":1468:1469   */\n      dup1\n        /* \"#utility.yul\":1461:1473   */\n      revert\n        /* \"#utility.yul\":1420:1475   */\n    tag_31:\n        /* \"#utility.yul\":1531:1533   */\n      dup3\n        /* \"#utility.yul\":1524:1528   */\n      0x20\n        /* \"#utility.yul\":1520:1522   */\n      dup7\n        /* \"#utility.yul\":1516:1529   */\n      add\n        /* \"#utility.yul\":1509:1513   */\n      0x20\n        /* \"#utility.yul\":1501:1507   */\n      dup4\n        /* \"#utility.yul\":1497:1514   */\n      add\n        /* \"#utility.yul\":1484:1534   */\n      calldatacopy\n        /* \"#utility.yul\":1578:1579   */\n      0x00\n        /* \"#utility.yul\":1571:1575   */\n      0x20\n        /* \"#utility.yul\":1554:1569   */\n      swap4\n      dup3\n      add\n        /* \"#utility.yul\":1550:1576   */\n      dup5\n      add\n        /* \"#utility.yul\":1543:1580   */\n      mstore\n        /* \"#utility.yul\":1554:1569   */\n      swap9\n        /* \"#utility.yul\":1637:1657   */\n      swap7\n      swap1\n      swap2\n      add\n        /* \"#utility.yul\":1624:1658   */\n      calldataload\n      swap7\n      pop\n      pop\n      pop\n      pop\n      pop\n      pop\n        /* \"#utility.yul\":664:1664   */\n      jump\t// out\n        /* \"#utility.yul\":1851:2619   */\n    tag_16:\n        /* \"#utility.yul\":2085:2086   */\n      0x01\n        /* \"#utility.yul\":2081:2082   */\n      dup1\n        /* \"#utility.yul\":2076:2079   */\n      0xa0\n        /* \"#utility.yul\":2072:2083   */\n      shl\n        /* \"#utility.yul\":2068:2087   */\n      sub\n        /* \"#utility.yul\":2060:2066   */\n      dup5\n        /* \"#utility.yul\":2056:2088   */\n      and\n        /* \"#utility.yul\":2045:2054   */\n      dup2\n        /* \"#utility.yul\":2038:2089   */\n      mstore\n        /* \"#utility.yul\":2019:2023   */\n      0x00\n        /* \"#utility.yul\":2108:2110   */\n      0x20\n        /* \"#utility.yul\":2146:2152   */\n      dup5\n        /* \"#utility.yul\":2141:2143   */\n      dup2\n        /* \"#utility.yul\":2130:2139   */\n      dup5\n        /* \"#utility.yul\":2126:2144   */\n      add\n        /* \"#utility.yul\":2119:2153   */\n      mstore\n        /* \"#utility.yul\":2189:2191   */\n      0x60\n        /* \"#utility.yul\":2184:2186   */\n      0x40\n        /* \"#utility.yul\":2173:2182   */\n      dup5\n        /* \"#utility.yul\":2169:2187   */\n      add\n        /* \"#utility.yul\":2162:2192   */\n      mstore\n        /* \"#utility.yul\":2221:2227   */\n      dup4\n        /* \"#utility.yul\":2215:2228   */\n      mload\n        /* \"#utility.yul\":2264:2270   */\n      dup1\n        /* \"#utility.yul\":2259:2261   */\n      0x60\n        /* \"#utility.yul\":2248:2257   */\n      dup6\n        /* \"#utility.yul\":2244:2262   */\n      add\n        /* \"#utility.yul\":2237:2271   */\n      mstore\n        /* \"#utility.yul\":2289:2290   */\n      0x00\n        /* \"#utility.yul\":2299:2440   */\n    tag_34:\n        /* \"#utility.yul\":2313:2319   */\n      dup2\n        /* \"#utility.yul\":2310:2311   */\n      dup2\n        /* \"#utility.yul\":2307:2320   */\n      lt\n        /* \"#utility.yul\":2299:2440   */\n      iszero\n      tag_36\n      jumpi\n        /* \"#utility.yul\":2409:2423   */\n      dup6\n      dup2\n      add\n        /* \"#utility.yul\":2405:2428   */\n      dup4\n      add\n        /* \"#utility.yul\":2399:2429   */\n      mload\n        /* \"#utility.yul\":2374:2391   */\n      dup6\n      dup3\n      add\n        /* \"#utility.yul\":2393:2396   */\n      0x80\n        /* \"#utility.yul\":2370:2397   */\n      add\n        /* \"#utility.yul\":2363:2430   */\n      mstore\n        /* \"#utility.yul\":2328:2338   */\n      dup3\n      add\n        /* \"#utility.yul\":2299:2440   */\n      jump(tag_34)\n    tag_36:\n        /* \"#utility.yul\":2458:2464   */\n      dup2\n        /* \"#utility.yul\":2455:2456   */\n      dup2\n        /* \"#utility.yul\":2452:2465   */\n      gt\n        /* \"#utility.yul\":2449:2541   */\n      iszero\n      tag_37\n      jumpi\n        /* \"#utility.yul\":2529:2530   */\n      0x00\n        /* \"#utility.yul\":2523:2526   */\n      0x80\n        /* \"#utility.yul\":2514:2520   */\n      dup4\n        /* \"#utility.yul\":2503:2512   */\n      dup8\n        /* \"#utility.yul\":2499:2521   */\n      add\n        /* \"#utility.yul\":2495:2527   */\n      add\n        /* \"#utility.yul\":2488:2531   */\n      mstore\n        /* \"#utility.yul\":2449:2541   */\n    tag_37:\n      pop\n        /* \"#utility.yul\":2602:2604   */\n      0x1f\n        /* \"#utility.yul\":2581:2596   */\n      add\n      not(0x1f)\n        /* \"#utility.yul\":2577:2606   */\n      and\n        /* \"#utility.yul\":2562:2607   */\n      swap3\n      swap1\n      swap3\n      add\n        /* \"#utility.yul\":2609:2612   */\n      0x80\n        /* \"#utility.yul\":2558:2613   */\n      add\n      swap6\n        /* \"#utility.yul\":1851:2619   */\n      swap5\n      pop\n      pop\n      pop\n      pop\n      pop\n      jump\t// out\n        /* \"#utility.yul\":2624:2849   */\n    tag_18:\n        /* \"#utility.yul\":2664:2667   */\n      0x00\n        /* \"#utility.yul\":2695:2696   */\n      dup3\n        /* \"#utility.yul\":2691:2697   */\n      not\n        /* \"#utility.yul\":2688:2689   */\n      dup3\n        /* \"#utility.yul\":2685:2698   */\n      gt\n        /* \"#utility.yul\":2682:2818   */\n      iszero\n      tag_39\n      jumpi\n        /* \"#utility.yul\":2740:2750   */\n      0x4e487b71\n        /* \"#utility.yul\":2735:2738   */\n      0xe0\n        /* \"#utility.yul\":2731:2751   */\n      shl\n        /* \"#utility.yul\":2728:2729   */\n      0x00\n        /* \"#utility.yul\":2721:2752   */\n      mstore\n        /* \"#utility.yul\":2775:2779   */\n      0x11\n        /* \"#utility.yul\":2772:2773   */\n      0x04\n        /* \"#utility.yul\":2765:2780   */\n      mstore\n        /* \"#utility.yul\":2803:2807   */\n      0x24\n        /* \"#utility.yul\":2800:2801   */\n      0x00\n        /* \"#utility.yul\":2793:2808   */\n      revert\n        /* \"#utility.yul\":2682:2818   */\n    tag_39:\n      pop\n        /* \"#utility.yul\":2834:2843   */\n      add\n      swap1\n        /* \"#utility.yul\":2624:2849   */\n      jump\t// out\n\n    auxdata: 0xa164736f6c6343000809000a\n}\n",
    "bytecode": {
      "linkReferences": {},
      "object": "608060405234801561001057600080fd5b50610261806100206000396000f3fe60806040526004361061001e5760003560e01c806324ccab8f14610083575b6040805133815234602082015260608183018190526013908201527211985b1b189858dac81dd85cc818d85b1b1959606a1b608082015290517f59e04c3f0d44b7caf6e8ef854b61d9a51cf1960d7a88ff6356cc5e946b4b58329181900360a00190a1005b61009661009136600461010d565b6100a8565b60405190815260200160405180910390f35b60007f59e04c3f0d44b7caf6e8ef854b61d9a51cf1960d7a88ff6356cc5e946b4b58323334856040516100dd939291906101c2565b60405180910390a16100f082600161022e565b9392505050565b634e487b7160e01b600052604160045260246000fd5b6000806040838503121561012057600080fd5b823567ffffffffffffffff8082111561013857600080fd5b818501915085601f83011261014c57600080fd5b81358181111561015e5761015e6100f7565b604051601f8201601f19908116603f01168101908382118183101715610186576101866100f7565b8160405282815288602084870101111561019f57600080fd5b826020860160208301376000602093820184015298969091013596505050505050565b60018060a01b038416815260006020848184015260606040840152835180606085015260005b81811015610204578581018301518582016080015282016101e8565b81811115610216576000608083870101525b50601f01601f19169290920160800195945050505050565b6000821982111561024f57634e487b7160e01b600052601160045260246000fd5b50019056fea164736f6c6343000809000a",
      "opcodes": "PUSH1 0x80 PUSH1 0x40 MSTORE CALLVALUE DUP1 ISZERO PUSH2 0x10 JUMPI PUSH1 0x0 DUP1 REVERT JUMPDEST POP PUSH2 0x261 DUP1 PUSH2 0x20 PUSH1 0x0 CODECOPY PUSH1 0x0 RETURN INVALID PUSH1 0x80 PUSH1 0x40 MSTORE PUSH1 0x4 CALLDATASIZE LT PUSH2 0x1E JUMPI PUSH1 0x0 CALLDATALOAD PUSH1 0xE0 SHR DUP1 PUSH4 0x24CCAB8F EQ PUSH2 0x83 JUMPI JUMPDEST PUSH1 0x40 DUP1 MLOAD CALLER DUP2 MSTORE CALLVALUE PUSH1 0x20 DUP3 ADD MSTORE PUSH1 0x60 DUP2 DUP4 ADD DUP2 SWAP1 MSTORE PUSH1 0x13 SWAP1 DUP3 ADD MSTORE PUSH19 0x11985B1B189858DAC81DD85CC818D85B1B1959 PUSH1 0x6A SHL PUSH1 0x80 DUP3 ADD MSTORE SWAP1 MLOAD PUSH32 0x59E04C3F0D44B7CAF6E8EF854B61D9A51CF1960D7A88FF6356CC5E946B4B5832 SWAP2 DUP2 SWAP1 SUB PUSH1 0xA0 ADD SWAP1 LOG1 STOP JUMPDEST PUSH2 0x96 PUSH2 0x91 CALLDATASIZE PUSH1 0x4 PUSH2 0x10D JUMP JUMPDEST PUSH2 0xA8 JUMP JUMPDEST PUSH1 0x40 MLOAD SWAP1 DUP2 MSTORE PUSH1 0x20 ADD PUSH1 0x40 MLOAD DUP1 SWAP2 SUB SWAP1 RETURN JUMPDEST PUSH1 0x0 PUSH32 0x59E04C3F0D44B7CAF6E8EF854B61D9A51CF1960D7A88FF6356CC5E946B4B5832 CALLER CALLVALUE DUP6 PUSH1 0x40 MLOAD PUSH2 0xDD SWAP4 SWAP3 SWAP2 SWAP1 PUSH2 0x1C2 JUMP JUMPDEST PUSH1 0x40 MLOAD DUP1 SWAP2 SUB SWAP1 LOG1 PUSH2 0xF0 DUP3 PUSH1 0x1 PUSH2 0x22E JUMP JUMPDEST SWAP4 SWAP3 POP POP POP JUMP JUMPDEST PUSH4 0x4E487B71 PUSH1 0xE0 SHL PUSH1 0x0 MSTORE PUSH1 0x41 PUSH1 0x4 MSTORE PUSH1 0x24 PUSH1 0x0 REVERT JUMPDEST PUSH1 0x0 DUP1 PUSH1 0x40 DUP4 DUP6 SUB SLT ISZERO PUSH2 0x120 JUMPI PUSH1 0x0 DUP1 REVERT JUMPDEST DUP3 CALLDATALOAD PUSH8 0xFFFFFFFFFFFFFFFF DUP1 DUP3 GT ISZERO PUSH2 0x138 JUMPI PUSH1 0x0 DUP1 REVERT JUMPDEST DUP2 DUP6 ADD SWAP2 POP DUP6 PUSH1 0x1F DUP4 ADD SLT PUSH2 0x14C JUMPI PUSH1 0x0 DUP1 REVERT JUMPDEST DUP2 CALLDATALOAD DUP2 DUP2 GT ISZERO PUSH2 0x15E JUMPI PUSH2 0x15E PUSH2 0xF7 JUMP JUMPDEST PUSH1 0x40 MLOAD PUSH1 0x1F DUP3 ADD PUSH1 0x1F NOT SWAP1 DUP2 AND PUSH1 0x3F ADD AND DUP2 ADD SWAP1 DUP4 DUP3 GT DUP2 DUP4 LT OR ISZERO PUSH2 0x186 JUMPI PUSH2 0x186 PUSH2 0xF7 JUMP JUMPDEST DUP2 PUSH1 0x40 MSTORE DUP3 DUP2 MSTORE DUP9 PUSH1 0x20 DUP5 DUP8 ADD ADD GT ISZERO PUSH2 0x19F JUMPI PUSH1 0x0 DUP1 REVERT JUMPDEST DUP3 PUSH1 0x20 DUP7 ADD PUSH1 0x20 DUP4 ADD CALLDATACOPY PUSH1 0x0 PUSH1 0x20 SWAP4 DUP3 ADD DUP5 ADD MSTORE SWAP9 SWAP7 SWAP1 SWAP2 ADD CALLDATALOAD SWAP7 POP POP POP POP POP POP JUMP JUMPDEST PUSH1 0x1 DUP1 PUSH1 0xA0 SHL SUB DUP5 AND DUP2 MSTORE PUSH1 0x0 PUSH1 0x20 DUP5 DUP2 DUP5 ADD MSTORE PUSH1 0x60 PUSH1 0x40 DUP5 ADD MSTORE DUP4 MLOAD DUP1 PUSH1 0x60 DUP6 ADD MSTORE PUSH1 0x0 JUMPDEST DUP2 DUP2 LT ISZERO PUSH2 0x204 JUMPI DUP6 DUP2 ADD DUP4 ADD MLOAD DUP6 DUP3 ADD PUSH1 0x80 ADD MSTORE DUP3 ADD PUSH2 0x1E8 JUMP JUMPDEST DUP2 DUP2 GT ISZERO PUSH2 0x216 JUMPI PUSH1 0x0 PUSH1 0x80 DUP4 DUP8 ADD ADD MSTORE JUMPDEST POP PUSH1 0x1F ADD PUSH1 0x1F NOT AND SWAP3 SWAP1 SWAP3 ADD PUSH1 0x80 ADD SWAP6 SWAP5 POP POP POP POP POP JUMP JUMPDEST PUSH1 0x0 DUP3 NOT DUP3 GT ISZERO PUSH2 0x24F JUMPI PUSH4 0x4E487B71 PUSH1 0xE0 SHL PUSH1 0x0 MSTORE PUSH1 0x11 PUSH1 0x4 MSTORE PUSH1 0x24 PUSH1 0x0 REVERT JUMPDEST POP ADD SWAP1 JUMP INVALID LOG1 PUSH5 0x736F6C6343 STOP ADDMOD MULMOD STOP EXP "
    },
    "gasEstimates": {
      "creation": {
        "codeDepositCost": "121800",
        "executionCost": "171",
        "totalCost": "121971"
      },
      "external": {
        "": "2240",
        "foo(string,uint256)": "infinite"
      }
    },
    "methodIdentifiers": {
      "foo(string,uint256)": "24ccab8f"
    }
  },
  "storageLayout": {
    "storage": [],
    "types": null
  },
  "userdoc": {
    "kind": "user",
    "methods": {},
    "version": 1
  }
}