{
  "abi": [
    {
      "anonymous": false,
      "inputs": [
        {
          "indexed": false,
          "internalType": "bool",
          "name": "success",
          "type": "bool"
        },
        {
          "indexed": false,
          "internalType": "bytes",
          "name": "data",
          "type": "bytes"
        }
      ],
      "name": "Response",
      "type": "event"
    },
    {
      "inputs": [
        {
          "internalType": "address",
          "name": "_addr",
          "type": "address"
        }
      ],
      "name": "testCallDoesNotExist",
      "outputs": [],
      "stateMutability": "nonpayable",
      "type": "function"
    },
    {
      "inputs": [
        {
          "internalType": "address payable",
          "name": "_addr",
          "type": "address"
        }
      ],
      "name": "testCallFoo",
      "outputs": [],
      "stateMutability": "payable",
      "type": "function"
    }
  ],
  "devdoc": {
    "kind": "dev",
    "methods": {},
    "version": 1
  },
  "evm": {
    "assembly": "    /* \"__contract__.sol\":474:1335  contract Caller {... */\n  mstore(0x40, 0x80)\n  callvalue\n  dup1\n  iszero\n  tag_1\n  jumpi\n  0x00\n  dup1\n  revert\ntag_1:\n  pop\n  dataSize(sub_0)\n  dup1\n  dataOffset(sub_0)\n  0x00\n  codecopy\n  0x00\n  return\nstop\n\nsub_0: assembly {\n        /* \"__contract__.sol\":474:1335  contract Caller {... */\n      mstore(0x40, 0x80)\n      jumpi(tag_1, lt(calldatasize, 0x04))\n      shr(0xe0, calldataload(0x00))\n      dup1\n      0x87ba6179\n      eq\n      tag_2\n      jumpi\n      dup1\n      0xff00726c\n      eq\n      tag_3\n      jumpi\n    tag_1:\n      0x00\n      dup1\n      revert\n        /* \"__contract__.sol\":691:1030  function testCallFoo(address payable _addr) public payable {... */\n    tag_2:\n      tag_4\n      0x04\n      dup1\n      calldatasize\n      sub\n      dup2\n      add\n      swap1\n      tag_5\n      swap2\n      swap1\n      tag_6\n      jump\t// in\n    tag_5:\n      tag_7\n      jump\t// in\n    tag_4:\n      stop\n        /* \"__contract__.sol\":1114:1333  function testCallDoesNotExist(address _addr) public {... */\n    tag_3:\n      callvalue\n      dup1\n      iszero\n      tag_8\n      jumpi\n      0x00\n      dup1\n      revert\n    tag_8:\n      pop\n      tag_9\n      0x04\n      dup1\n      calldatasize\n      sub\n      dup2\n      add\n      swap1\n      tag_10\n      swap2\n      swap1\n      tag_11\n      jump\t// in\n    tag_10:\n      tag_12\n      jump\t// in\n    tag_9:\n      stop\n        /* \"__contract__.sol\":691:1030  function testCallFoo(address payable _addr) public payable {... */\n    tag_7:\n        /* \"__contract__.sol\":823:835  bool success */\n      0x00\n        /* \"__contract__.sol\":837:854  bytes memory data */\n      dup1\n        /* \"__contract__.sol\":858:863  _addr */\n      dup3\n        /* \"__contract__.sol\":858:868  _addr.call */\n      0xffffffffffffffffffffffffffffffffffffffff\n      and\n        /* \"__contract__.sol\":876:885  msg.value */\n      callvalue\n        /* \"__contract__.sol\":892:896  5000 */\n      0x1388\n        /* \"__contract__.sol\":858:984  _addr.call{value: msg.value, gas: 5000}(... */\n      swap1\n        /* \"__contract__.sol\":970:973  123 */\n      0x7b\n        /* \"__contract__.sol\":911:974  abi.encodeWithSignature(\"foo(string,uint256)\", \"call foo\", 123) */\n      add(0x24, mload(0x40))\n      tag_14\n      swap2\n      swap1\n      tag_15\n      jump\t// in\n    tag_14:\n      mload(0x40)\n      0x20\n      dup2\n      dup4\n      sub\n      sub\n      dup2\n      mstore\n      swap1\n      0x40\n      mstore\n      and(not(0xffffffffffffffffffffffffffffffffffffffffffffffffffffffff), 0x24ccab8f00000000000000000000000000000000000000000000000000000000)\n      0x20\n      dup3\n      add\n      dup1\n      mload\n      0xffffffffffffffffffffffffffffffffffffffffffffffffffffffff\n      dup4\n      dup2\n      dup4\n      and\n      or\n      dup4\n      mstore\n      pop\n      pop\n      pop\n      pop\n        /* \"__contract__.sol\":858:984  _addr.call{value: msg.value, gas: 5000}(... */\n      mload(0x40)\n      tag_16\n      swap2\n      swap1\n      tag_17\n      jump\t// in\n    tag_16:\n      0x00\n      mload(0x40)\n      dup1\n      dup4\n      sub\n      dup2\n      dup6\n      dup9\n      dup9\n      call\n      swap4\n      pop\n      pop\n      pop\n      pop\n      returndatasize\n      dup1\n      0x00\n      dup2\n      eq\n      tag_20\n      jumpi\n      mload(0x40)\n      swap2\n      pop\n      and(add(returndatasize, 0x3f), not(0x1f))\n      dup3\n      add\n      0x40\n      mstore\n      returndatasize\n      dup3\n      mstore\n      returndatasize\n      0x00\n      0x20\n      dup5\n      add\n      returndatacopy\n      jump(tag_19)\n    tag_20:\n      0x60\n      swap2\n      pop\n    tag_19:\n      pop\n        /* \"__contract__.sol\":822:984  (bool success, bytes memory data) = _addr.call{value: msg.value, gas: 5000}(... */\n      swap2\n      pop\n      swap2\n      pop\n        /* \"__contract__.sol\":1000:1023  Response(success, data) */\n      0x13848c3e38f8886f3f5d2ad9dff80d8092c2bbb8efd5b887a99c2c6cfc09ac2a\n        /* \"__contract__.sol\":1009:1016  success */\n      dup3\n        /* \"__contract__.sol\":1018:1022  data */\n      dup3\n        /* \"__contract__.sol\":1000:1023  Response(success, data) */\n      mload(0x40)\n      tag_21\n      swap3\n      swap2\n      swap1\n      tag_22\n      jump\t// in\n    tag_21:\n      mload(0x40)\n      dup1\n      swap2\n      sub\n      swap1\n      log1\n        /* \"__contract__.sol\":750:1030  {... */\n      pop\n      pop\n        /* \"__contract__.sol\":691:1030  function testCallFoo(address payable _addr) public payable {... */\n      pop\n      jump\t// out\n        /* \"__contract__.sol\":1114:1333  function testCallDoesNotExist(address _addr) public {... */\n    tag_12:\n        /* \"__contract__.sol\":1177:1189  bool success */\n      0x00\n        /* \"__contract__.sol\":1191:1208  bytes memory data */\n      dup1\n        /* \"__contract__.sol\":1212:1217  _addr */\n      dup3\n        /* \"__contract__.sol\":1212:1222  _addr.call */\n      0xffffffffffffffffffffffffffffffffffffffff\n      and\n        /* \"__contract__.sol\":1236:1277  abi.encodeWithSignature(\"doesNotExist()\") */\n      add(0x24, mload(0x40))\n      mload(0x40)\n      0x20\n      dup2\n      dup4\n      sub\n      sub\n      dup2\n      mstore\n      swap1\n      0x40\n      mstore\n      and(not(0xffffffffffffffffffffffffffffffffffffffffffffffffffffffff), 0x1dcc85ae00000000000000000000000000000000000000000000000000000000)\n      0x20\n      dup3\n      add\n      dup1\n      mload\n      0xffffffffffffffffffffffffffffffffffffffffffffffffffffffff\n      dup4\n      dup2\n      dup4\n      and\n      or\n      dup4\n      mstore\n      pop\n      pop\n      pop\n      pop\n        /* \"__contract__.sol\":1212:1287  _addr.call(... */\n      mload(0x40)\n      tag_24\n      swap2\n      swap1\n      tag_17\n      jump\t// in\n    tag_24:\n      0x00\n      mload(0x40)\n      dup1\n      dup4\n      sub\n      dup2\n      0x00\n      dup7\n      gas\n      call\n      swap2\n      pop\n      pop\n      returndatasize\n      dup1\n      0x00\n      dup2\n      eq\n      tag_27\n      jumpi\n      mload(0x40)\n      swap2\n      pop\n      and(add(returndatasize, 0x3f), not(0x1f))\n      dup3\n      add\n      0x40\n      mstore\n      returndatasize\n      dup3\n      mstore\n      returndatasize\n      0x00\n      0x20\n      dup5\n      add\n      returndatacopy\n      jump(tag_26)\n    tag_27:\n      0x60\n      swap2\n      pop\n    tag_26:\n      pop\n        /* \"__contract__.sol\":1176:1287  (bool success, bytes memory data) = _addr.call(... */\n      swap2\n      pop\n      swap2\n      pop\n        /* \"__contract__.sol\":1303:1326  Response(success, data) */\n      0x13848c3e38f8886f3f5d2ad9dff80d8092c2bbb8efd5b887a99c2c6cfc09ac2a\n        /* \"__contract__.sol\":1312:1319  success */\n      dup3\n        /* \"__contract__.sol\":1321:1325  data */\n      dup3\n        /* \"__contract__.sol\":1303:1326  Response(success, data) */\n      mload(0x40)\n      tag_28\n      swap3\n      swap2\n      swap1\n      tag_22\n      jump\t// in\n    tag_28:\n      mload(0x40)\n      dup1\n      swap2\n      sub\n      swap1\n      log1\n        /* \"__contract__.sol\":1166:1333  {... */\n      pop\n      pop\n        /* \"__contract__.sol\":1114:1333  function testCallDoesNotExist(address _addr) public {... */\n      pop\n      jump\t// out\n        /* \"#utility.yul\":88:205   */\n    tag_30:\n        /* \"#utility.yul\":197:198   */\n      0x00\n        /* \"#utility.yul\":194:195   */\n      dup1\n        /* \"#utility.yul\":187:199   */\n      revert\n        /* \"#utility.yul\":334:460   */\n    tag_32:\n        /* \"#utility.yul\":371:378   */\n      0x00\n        /* \"#utility.yul\":411:453   */\n      0xffffffffffffffffffffffffffffffffffffffff\n        /* \"#utility.yul\":404:409   */\n      dup3\n        /* \"#utility.yul\":400:454   */\n      and\n        /* \"#utility.yul\":389:454   */\n      swap1\n      pop\n        /* \"#utility.yul\":334:460   */\n      swap2\n      swap1\n      pop\n      jump\t// out\n        /* \"#utility.yul\":466:570   */\n    tag_33:\n        /* \"#utility.yul\":511:518   */\n      0x00\n        /* \"#utility.yul\":540:564   */\n      tag_62\n        /* \"#utility.yul\":558:563   */\n      dup3\n        /* \"#utility.yul\":540:564   */\n      tag_32\n      jump\t// in\n    tag_62:\n        /* \"#utility.yul\":529:564   */\n      swap1\n      pop\n        /* \"#utility.yul\":466:570   */\n      swap2\n      swap1\n      pop\n      jump\t// out\n        /* \"#utility.yul\":576:714   */\n    tag_34:\n        /* \"#utility.yul\":657:689   */\n      tag_64\n        /* \"#utility.yul\":683:688   */\n      dup2\n        /* \"#utility.yul\":657:689   */\n      tag_33\n      jump\t// in\n    tag_64:\n        /* \"#utility.yul\":650:655   */\n      dup2\n        /* \"#utility.yul\":647:690   */\n      eq\n        /* \"#utility.yul\":637:708   */\n      tag_65\n      jumpi\n        /* \"#utility.yul\":704:705   */\n      0x00\n        /* \"#utility.yul\":701:702   */\n      dup1\n        /* \"#utility.yul\":694:706   */\n      revert\n        /* \"#utility.yul\":637:708   */\n    tag_65:\n        /* \"#utility.yul\":576:714   */\n      pop\n      jump\t// out\n        /* \"#utility.yul\":720:875   */\n    tag_35:\n        /* \"#utility.yul\":774:779   */\n      0x00\n        /* \"#utility.yul\":812:818   */\n      dup2\n        /* \"#utility.yul\":799:819   */\n      calldataload\n        /* \"#utility.yul\":790:819   */\n      swap1\n      pop\n        /* \"#utility.yul\":828:869   */\n      tag_67\n        /* \"#utility.yul\":863:868   */\n      dup2\n        /* \"#utility.yul\":828:869   */\n      tag_34\n      jump\t// in\n    tag_67:\n        /* \"#utility.yul\":720:875   */\n      swap3\n      swap2\n      pop\n      pop\n      jump\t// out\n        /* \"#utility.yul\":881:1226   */\n    tag_6:\n        /* \"#utility.yul\":948:954   */\n      0x00\n        /* \"#utility.yul\":997:999   */\n      0x20\n        /* \"#utility.yul\":985:994   */\n      dup3\n        /* \"#utility.yul\":976:983   */\n      dup5\n        /* \"#utility.yul\":972:995   */\n      sub\n        /* \"#utility.yul\":968:1000   */\n      slt\n        /* \"#utility.yul\":965:1084   */\n      iszero\n      tag_69\n      jumpi\n        /* \"#utility.yul\":1003:1082   */\n      tag_70\n      tag_30\n      jump\t// in\n    tag_70:\n        /* \"#utility.yul\":965:1084   */\n    tag_69:\n        /* \"#utility.yul\":1123:1124   */\n      0x00\n        /* \"#utility.yul\":1148:1209   */\n      tag_71\n        /* \"#utility.yul\":1201:1208   */\n      dup5\n        /* \"#utility.yul\":1192:1198   */\n      dup3\n        /* \"#utility.yul\":1181:1190   */\n      dup6\n        /* \"#utility.yul\":1177:1199   */\n      add\n        /* \"#utility.yul\":1148:1209   */\n      tag_35\n      jump\t// in\n    tag_71:\n        /* \"#utility.yul\":1138:1209   */\n      swap2\n      pop\n        /* \"#utility.yul\":1094:1219   */\n      pop\n        /* \"#utility.yul\":881:1226   */\n      swap3\n      swap2\n      pop\n      pop\n      jump\t// out\n        /* \"#utility.yul\":1232:1328   */\n    tag_36:\n        /* \"#utility.yul\":1269:1276   */\n      0x00\n        /* \"#utility.yul\":1298:1322   */\n      tag_73\n        /* \"#utility.yul\":1316:1321   */\n      dup3\n        /* \"#utility.yul\":1298:1322   */\n      tag_32\n      jump\t// in\n    tag_73:\n        /* \"#utility.yul\":1287:1322   */\n      swap1\n      pop\n        /* \"#utility.yul\":1232:1328   */\n      swap2\n      swap1\n      pop\n      jump\t// out\n        /* \"#utility.yul\":1334:1456   */\n    tag_37:\n        /* \"#utility.yul\":1407:1431   */\n      tag_75\n        /* \"#utility.yul\":1425:1430   */\n      dup2\n        /* \"#utility.yul\":1407:1431   */\n      tag_36\n      jump\t// in\n    tag_75:\n        /* \"#utility.yul\":1400:1405   */\n      dup2\n        /* \"#utility.yul\":1397:1432   */\n      eq\n        /* \"#utility.yul\":1387:1450   */\n      tag_76\n      jumpi\n        /* \"#utility.yul\":1446:1447   */\n      0x00\n        /* \"#utility.yul\":1443:1444   */\n      dup1\n        /* \"#utility.yul\":1436:1448   */\n      revert\n        /* \"#utility.yul\":1387:1450   */\n    tag_76:\n        /* \"#utility.yul\":1334:1456   */\n      pop\n      jump\t// out\n        /* \"#utility.yul\":1462:1601   */\n    tag_38:\n        /* \"#utility.yul\":1508:1513   */\n      0x00\n        /* \"#utility.yul\":1546:1552   */\n      dup2\n        /* \"#utility.yul\":1533:1553   */\n      calldataload\n        /* \"#utility.yul\":1524:1553   */\n      swap1\n      pop\n        /* \"#utility.yul\":1562:1595   */\n      tag_78\n        /* \"#utility.yul\":1589:1594   */\n      dup2\n        /* \"#utility.yul\":1562:1595   */\n      tag_37\n      jump\t// in\n    tag_78:\n        /* \"#utility.yul\":1462:1601   */\n      swap3\n      swap2\n      pop\n      pop\n      jump\t// out\n        /* \"#utility.yul\":1607:1936   */\n    tag_11:\n        /* \"#utility.yul\":1666:1672   */\n      0x00\n        /* \"#utility.yul\":1715:1717   */\n      0x20\n        /* \"#utility.yul\":1703:1712   */\n      dup3\n        /* \"#utility.yul\":1694:1701   */\n      dup5\n        /* \"#utility.yul\":1690:1713   */\n      sub\n        /* \"#utility.yul\":1686:1718   */\n      slt\n        /* \"#utility.yul\":1683:1802   */\n      iszero\n      tag_80\n      jumpi\n        /* \"#utility.yul\":1721:1800   */\n      tag_81\n      tag_30\n      jump\t// in\n    tag_81:\n        /* \"#utility.yul\":1683:1802   */\n    tag_80:\n        /* \"#utility.yul\":1841:1842   */\n      0x00\n        /* \"#utility.yul\":1866:1919   */\n      tag_82\n        /* \"#utility.yul\":1911:1918   */\n      dup5\n        /* \"#utility.yul\":1902:1908   */\n      dup3\n        /* \"#utility.yul\":1891:1900   */\n      dup6\n        /* \"#utility.yul\":1887:1909   */\n      add\n        /* \"#utility.yul\":1866:1919   */\n      tag_38\n      jump\t// in\n    tag_82:\n        /* \"#utility.yul\":1856:1919   */\n      swap2\n      pop\n        /* \"#utility.yul\":1812:1929   */\n      pop\n        /* \"#utility.yul\":1607:1936   */\n      swap3\n      swap2\n      pop\n      pop\n      jump\t// out\n        /* \"#utility.yul\":1942:2111   */\n    tag_39:\n        /* \"#utility.yul\":2026:2037   */\n      0x00\n        /* \"#utility.yul\":2060:2066   */\n      dup3\n        /* \"#utility.yul\":2055:2058   */\n      dup3\n        /* \"#utility.yul\":2048:2067   */\n      mstore\n        /* \"#utility.yul\":2100:2104   */\n      0x20\n        /* \"#utility.yul\":2095:2098   */\n      dup3\n        /* \"#utility.yul\":2091:2105   */\n      add\n        /* \"#utility.yul\":2076:2105   */\n      swap1\n      pop\n        /* \"#utility.yul\":1942:2111   */\n      swap3\n      swap2\n      pop\n      pop\n      jump\t// out\n        /* \"#utility.yul\":2117:2275   */\n    tag_40:\n        /* \"#utility.yul\":2257:2267   */\n      0x63616c6c20666f6f000000000000000000000000000000000000000000000000\n        /* \"#utility.yul\":2253:2254   */\n      0x00\n        /* \"#utility.yul\":2245:2251   */\n      dup3\n        /* \"#utility.yul\":2241:2255   */\n      add\n        /* \"#utility.yul\":2234:2268   */\n      mstore\n        /* \"#utility.yul\":2117:2275   */\n      pop\n      jump\t// out\n        /* \"#utility.yul\":2281:2646   */\n    tag_41:\n        /* \"#utility.yul\":2423:2426   */\n      0x00\n        /* \"#utility.yul\":2444:2510   */\n      tag_86\n        /* \"#utility.yul\":2508:2509   */\n      0x08\n        /* \"#utility.yul\":2503:2506   */\n      dup4\n        /* \"#utility.yul\":2444:2510   */\n      tag_39\n      jump\t// in\n    tag_86:\n        /* \"#utility.yul\":2437:2510   */\n      swap2\n      pop\n        /* \"#utility.yul\":2519:2612   */\n      tag_87\n        /* \"#utility.yul\":2608:2611   */\n      dup3\n        /* \"#utility.yul\":2519:2612   */\n      tag_40\n      jump\t// in\n    tag_87:\n        /* \"#utility.yul\":2637:2639   */\n      0x20\n        /* \"#utility.yul\":2632:2635   */\n      dup3\n        /* \"#utility.yul\":2628:2640   */\n      add\n        /* \"#utility.yul\":2621:2640   */\n      swap1\n      pop\n        /* \"#utility.yul\":2281:2646   */\n      swap2\n      swap1\n      pop\n      jump\t// out\n        /* \"#utility.yul\":2652:2739   */\n    tag_42:\n        /* \"#utility.yul\":2699:2706   */\n      0x00\n        /* \"#utility.yul\":2728:2733   */\n      dup2\n        /* \"#utility.yul\":2717:2733   */\n      swap1\n      pop\n        /* \"#utility.yul\":2652:2739   */\n      swap2\n      swap1\n      pop\n      jump\t// out\n        /* \"#utility.yul\":2745:2831   */\n    tag_43:\n        /* \"#utility.yul\":2780:2787   */\n      0x00\n        /* \"#utility.yul\":2820:2824   */\n      0xff\n        /* \"#utility.yul\":2813:2818   */\n      dup3\n        /* \"#utility.yul\":2809:2825   */\n      and\n        /* \"#utility.yul\":2798:2825   */\n      swap1\n      pop\n        /* \"#utility.yul\":2745:2831   */\n      swap2\n      swap1\n      pop\n      jump\t// out\n        /* \"#utility.yul\":2837:2897   */\n    tag_44:\n        /* \"#utility.yul\":2865:2868   */\n      0x00\n        /* \"#utility.yul\":2886:2891   */\n      dup2\n        /* \"#utility.yul\":2879:2891   */\n      swap1\n      pop\n        /* \"#utility.yul\":2837:2897   */\n      swap2\n      swap1\n      pop\n      jump\t// out\n        /* \"#utility.yul\":2903:3061   */\n    tag_45:\n        /* \"#utility.yul\":2961:2970   */\n      0x00\n        /* \"#utility.yul\":2994:3055   */\n      tag_92\n        /* \"#utility.yul\":3010:3054   */\n      tag_93\n        /* \"#utility.yul\":3019:3053   */\n      tag_94\n        /* \"#utility.yul\":3047:3052   */\n      dup5\n        /* \"#utility.yul\":3019:3053   */\n      tag_42\n      jump\t// in\n    tag_94:\n        /* \"#utility.yul\":3010:3054   */\n      tag_44\n      jump\t// in\n    tag_93:\n        /* \"#utility.yul\":2994:3055   */\n      tag_43\n      jump\t// in\n    tag_92:\n        /* \"#utility.yul\":2981:3055   */\n      swap1\n      pop\n        /* \"#utility.yul\":2903:3061   */\n      swap2\n      swap1\n      pop\n      jump\t// out\n        /* \"#utility.yul\":3067:3214   */\n    tag_46:\n        /* \"#utility.yul\":3162:3207   */\n      tag_96\n        /* \"#utility.yul\":3201:3206   */\n      dup2\n        /* \"#utility.yul\":3162:3207   */\n      tag_45\n      jump\t// in\n    tag_96:\n        /* \"#utility.yul\":3157:3160   */\n      dup3\n        /* \"#utility.yul\":3150:3208   */\n      mstore\n        /* \"#utility.yul\":3067:3214   */\n      pop\n      pop\n      jump\t// out\n        /* \"#utility.yul\":3220:3765   */\n    tag_15:\n        /* \"#utility.yul\":3422:3426   */\n      0x00\n        /* \"#utility.yul\":3460:3462   */\n      0x40\n        /* \"#utility.yul\":3449:3458   */\n      dup3\n        /* \"#utility.yul\":3445:3463   */\n      add\n        /* \"#utility.yul\":3437:3463   */\n      swap1\n      pop\n        /* \"#utility.yul\":3509:3518   */\n      dup2\n        /* \"#utility.yul\":3503:3507   */\n      dup2\n        /* \"#utility.yul\":3499:3519   */\n      sub\n        /* \"#utility.yul\":3495:3496   */\n      0x00\n        /* \"#utility.yul\":3484:3493   */\n      dup4\n        /* \"#utility.yul\":3480:3497   */\n      add\n        /* \"#utility.yul\":3473:3520   */\n      mstore\n        /* \"#utility.yul\":3537:3668   */\n      tag_98\n        /* \"#utility.yul\":3663:3667   */\n      dup2\n        /* \"#utility.yul\":3537:3668   */\n      tag_41\n      jump\t// in\n    tag_98:\n        /* \"#utility.yul\":3529:3668   */\n      swap1\n      pop\n        /* \"#utility.yul\":3678:3758   */\n      tag_99\n        /* \"#utility.yul\":3754:3756   */\n      0x20\n        /* \"#utility.yul\":3743:3752   */\n      dup4\n        /* \"#utility.yul\":3739:3757   */\n      add\n        /* \"#utility.yul\":3730:3736   */\n      dup5\n        /* \"#utility.yul\":3678:3758   */\n      tag_46\n      jump\t// in\n    tag_99:\n        /* \"#utility.yul\":3220:3765   */\n      swap3\n      swap2\n      pop\n      pop\n      jump\t// out\n        /* \"#utility.yul\":3771:3869   */\n    tag_47:\n        /* \"#utility.yul\":3822:3828   */\n      0x00\n        /* \"#utility.yul\":3856:3861   */\n      dup2\n        /* \"#utility.yul\":3850:3862   */\n      mload\n        /* \"#utility.yul\":3840:3862   */\n      swap1\n      pop\n        /* \"#utility.yul\":3771:3869   */\n      swap2\n      swap1\n      pop\n      jump\t// out\n        /* \"#utility.yul\":3875:4022   */\n    tag_48:\n        /* \"#utility.yul\":3976:3987   */\n      0x00\n        /* \"#utility.yul\":4013:4016   */\n      dup2\n        /* \"#utility.yul\":3998:4016   */\n      swap1\n      pop\n        /* \"#utility.yul\":3875:4022   */\n      swap3\n      swap2\n      pop\n      pop\n      jump\t// out\n        /* \"#utility.yul\":4028:4335   */\n    tag_49:\n        /* \"#utility.yul\":4096:4097   */\n      0x00\n        /* \"#utility.yul\":4106:4219   */\n    tag_103:\n        /* \"#utility.yul\":4120:4126   */\n      dup4\n        /* \"#utility.yul\":4117:4118   */\n      dup2\n        /* \"#utility.yul\":4114:4127   */\n      lt\n        /* \"#utility.yul\":4106:4219   */\n      iszero\n      tag_105\n      jumpi\n        /* \"#utility.yul\":4205:4206   */\n      dup1\n        /* \"#utility.yul\":4200:4203   */\n      dup3\n        /* \"#utility.yul\":4196:4207   */\n      add\n        /* \"#utility.yul\":4190:4208   */\n      mload\n        /* \"#utility.yul\":4186:4187   */\n      dup2\n        /* \"#utility.yul\":4181:4184   */\n      dup5\n        /* \"#utility.yul\":4177:4188   */\n      add\n        /* \"#utility.yul\":4170:4209   */\n      mstore\n        /* \"#utility.yul\":4142:4144   */\n      0x20\n        /* \"#utility.yul\":4139:4140   */\n      dup2\n        /* \"#utility.yul\":4135:4145   */\n      add\n        /* \"#utility.yul\":4130:4145   */\n      swap1\n      pop\n        /* \"#utility.yul\":4106:4219   */\n      jump(tag_103)\n    tag_105:\n        /* \"#utility.yul\":4237:4243   */\n      dup4\n        /* \"#utility.yul\":4234:4235   */\n      dup2\n        /* \"#utility.yul\":4231:4244   */\n      gt\n        /* \"#utility.yul\":4228:4329   */\n      iszero\n      tag_106\n      jumpi\n        /* \"#utility.yul\":4317:4318   */\n      0x00\n        /* \"#utility.yul\":4308:4314   */\n      dup5\n        /* \"#utility.yul\":4303:4306   */\n      dup5\n        /* \"#utility.yul\":4299:4315   */\n      add\n        /* \"#utility.yul\":4292:4319   */\n      mstore\n        /* \"#utility.yul\":4228:4329   */\n    tag_106:\n        /* \"#utility.yul\":4077:4335   */\n      pop\n        /* \"#utility.yul\":4028:4335   */\n      pop\n      pop\n      pop\n      jump\t// out\n        /* \"#utility.yul\":4341:4714   */\n    tag_50:\n        /* \"#utility.yul\":4445:4448   */\n      0x00\n        /* \"#utility.yul\":4473:4511   */\n      tag_108\n        /* \"#utility.yul\":4505:4510   */\n      dup3\n        /* \"#utility.yul\":4473:4511   */\n      tag_47\n      jump\t// in\n    tag_108:\n        /* \"#utility.yul\":4527:4615   */\n      tag_109\n        /* \"#utility.yul\":4608:4614   */\n      dup2\n        /* \"#utility.yul\":4603:4606   */\n      dup6\n        /* \"#utility.yul\":4527:4615   */\n      tag_48\n      jump\t// in\n    tag_109:\n        /* \"#utility.yul\":4520:4615   */\n      swap4\n      pop\n        /* \"#utility.yul\":4624:4676   */\n      tag_110\n        /* \"#utility.yul\":4669:4675   */\n      dup2\n        /* \"#utility.yul\":4664:4667   */\n      dup6\n        /* \"#utility.yul\":4657:4661   */\n      0x20\n        /* \"#utility.yul\":4650:4655   */\n      dup7\n        /* \"#utility.yul\":4646:4662   */\n      add\n        /* \"#utility.yul\":4624:4676   */\n      tag_49\n      jump\t// in\n    tag_110:\n        /* \"#utility.yul\":4701:4707   */\n      dup1\n        /* \"#utility.yul\":4696:4699   */\n      dup5\n        /* \"#utility.yul\":4692:4708   */\n      add\n        /* \"#utility.yul\":4685:4708   */\n      swap2\n      pop\n        /* \"#utility.yul\":4449:4714   */\n      pop\n        /* \"#utility.yul\":4341:4714   */\n      swap3\n      swap2\n      pop\n      pop\n      jump\t// out\n        /* \"#utility.yul\":4720:4991   */\n    tag_17:\n        /* \"#utility.yul\":4850:4853   */\n      0x00\n        /* \"#utility.yul\":4872:4965   */\n      tag_112\n        /* \"#utility.yul\":4961:4964   */\n      dup3\n        /* \"#utility.yul\":4952:4958   */\n      dup5\n        /* \"#utility.yul\":4872:4965   */\n      tag_50\n      jump\t// in\n    tag_112:\n        /* \"#utility.yul\":4865:4965   */\n      swap2\n      pop\n        /* \"#utility.yul\":4982:4985   */\n      dup2\n        /* \"#utility.yul\":4975:4985   */\n      swap1\n      pop\n        /* \"#utility.yul\":4720:4991   */\n      swap3\n      swap2\n      pop\n      pop\n      jump\t// out\n        /* \"#utility.yul\":4997:5087   */\n    tag_51:\n        /* \"#utility.yul\":5031:5038   */\n      0x00\n        /* \"#utility.yul\":5074:5079   */\n      dup2\n        /* \"#utility.yul\":5067:5080   */\n      iszero\n        /* \"#utility.yul\":5060:5081   */\n      iszero\n        /* \"#utility.yul\":5049:5081   */\n      swap1\n      pop\n        /* \"#utility.yul\":4997:5087   */\n      swap2\n      swap1\n      pop\n      jump\t// out\n        /* \"#utility.yul\":5093:5202   */\n    tag_52:\n        /* \"#utility.yul\":5174:5195   */\n      tag_115\n        /* \"#utility.yul\":5189:5194   */\n      dup2\n        /* \"#utility.yul\":5174:5195   */\n      tag_51\n      jump\t// in\n    tag_115:\n        /* \"#utility.yul\":5169:5172   */\n      dup3\n        /* \"#utility.yul\":5162:5196   */\n      mstore\n        /* \"#utility.yul\":5093:5202   */\n      pop\n      pop\n      jump\t// out\n        /* \"#utility.yul\":5208:5376   */\n    tag_53:\n        /* \"#utility.yul\":5291:5302   */\n      0x00\n        /* \"#utility.yul\":5325:5331   */\n      dup3\n        /* \"#utility.yul\":5320:5323   */\n      dup3\n        /* \"#utility.yul\":5313:5332   */\n      mstore\n        /* \"#utility.yul\":5365:5369   */\n      0x20\n        /* \"#utility.yul\":5360:5363   */\n      dup3\n        /* \"#utility.yul\":5356:5370   */\n      add\n        /* \"#utility.yul\":5341:5370   */\n      swap1\n      pop\n        /* \"#utility.yul\":5208:5376   */\n      swap3\n      swap2\n      pop\n      pop\n      jump\t// out\n        /* \"#utility.yul\":5382:5484   */\n    tag_54:\n        /* \"#utility.yul\":5423:5429   */\n      0x00\n        /* \"#utility.yul\":5474:5476   */\n      0x1f\n        /* \"#utility.yul\":5470:5477   */\n      not\n        /* \"#utility.yul\":5465:5467   */\n      0x1f\n        /* \"#utility.yul\":5458:5463   */\n      dup4\n        /* \"#utility.yul\":5454:5468   */\n      add\n        /* \"#utility.yul\":5450:5478   */\n      and\n        /* \"#utility.yul\":5440:5478   */\n      swap1\n      pop\n        /* \"#utility.yul\":5382:5484   */\n      swap2\n      swap1\n      pop\n      jump\t// out\n        /* \"#utility.yul\":5490:5850   */\n    tag_55:\n        /* \"#utility.yul\":5576:5579   */\n      0x00\n        /* \"#utility.yul\":5604:5642   */\n      tag_119\n        /* \"#utility.yul\":5636:5641   */\n      dup3\n        /* \"#utility.yul\":5604:5642   */\n      tag_47\n      jump\t// in\n    tag_119:\n        /* \"#utility.yul\":5658:5728   */\n      tag_120\n        /* \"#utility.yul\":5721:5727   */\n      dup2\n        /* \"#utility.yul\":5716:5719   */\n      dup6\n        /* \"#utility.yul\":5658:5728   */\n      tag_53\n      jump\t// in\n    tag_120:\n        /* \"#utility.yul\":5651:5728   */\n      swap4\n      pop\n        /* \"#utility.yul\":5737:5789   */\n      tag_121\n        /* \"#utility.yul\":5782:5788   */\n      dup2\n        /* \"#utility.yul\":5777:5780   */\n      dup6\n        /* \"#utility.yul\":5770:5774   */\n      0x20\n        /* \"#utility.yul\":5763:5768   */\n      dup7\n        /* \"#utility.yul\":5759:5775   */\n      add\n        /* \"#utility.yul\":5737:5789   */\n      tag_49\n      jump\t// in\n    tag_121:\n        /* \"#utility.yul\":5814:5843   */\n      tag_122\n        /* \"#utility.yul\":5836:5842   */\n      dup2\n        /* \"#utility.yul\":5814:5843   */\n      tag_54\n      jump\t// in\n    tag_122:\n        /* \"#utility.yul\":5809:5812   */\n      dup5\n        /* \"#utility.yul\":5805:5844   */\n      add\n        /* \"#utility.yul\":5798:5844   */\n      swap2\n      pop\n        /* \"#utility.yul\":5580:5850   */\n      pop\n        /* \"#utility.yul\":5490:5850   */\n      swap3\n      swap2\n      pop\n      pop\n      jump\t// out\n        /* \"#utility.yul\":5856:6263   */\n    tag_22:\n        /* \"#utility.yul\":5989:5993   */\n      0x00\n        /* \"#utility.yul\":6027:6029   */\n      0x40\n        /* \"#utility.yul\":6016:6025   */\n      dup3\n        /* \"#utility.yul\":6012:6030   */\n      add\n        /* \"#utility.yul\":6004:6030   */\n      swap1\n      pop\n        /* \"#utility.yul\":6040:6105   */\n      tag_124\n        /* \"#utility.yul\":6102:6103   */\n      0x00\n        /* \"#utility.yul\":6091:6100   */\n      dup4\n        /* \"#utility.yul\":6087:6104   */\n      add\n        /* \"#utility.yul\":6078:6084   */\n      dup6\n        /* \"#utility.yul\":6040:6105   */\n      tag_52\n      jump\t// in\n    tag_124:\n        /* \"#utility.yul\":6152:6161   */\n      dup2\n        /* \"#utility.yul\":6146:6150   */\n      dup2\n        /* \"#utility.yul\":6142:6162   */\n      sub\n        /* \"#utility.yul\":6137:6139   */\n      0x20\n        /* \"#utility.yul\":6126:6135   */\n      dup4\n        /* \"#utility.yul\":6122:6140   */\n      add\n        /* \"#utility.yul\":6115:6163   */\n      mstore\n        /* \"#utility.yul\":6180:6256   */\n      tag_125\n        /* \"#utility.yul\":6251:6255   */\n      dup2\n        /* \"#utility.yul\":6242:6248   */\n      dup5\n        /* \"#utility.yul\":6180:6256   */\n      tag_55\n      jump\t// in\n    tag_125:\n        /* \"#utility.yul\":6172:6256   */\n      swap1\n      pop\n        /* \"#utility.yul\":5856:6263   */\n      swap4\n      swap3\n      pop\n      pop\n      pop\n      jump\t// out\n\n    auxdata: 0xa164736f6c6343000809000a\n}\n",
    "bytecode": {
      "linkReferences": {},
      "object": "608060405234801561001057600080fd5b506105ff806100206000396000f3fe6080604052600436106100295760003560e01c806387ba61791461002e578063ff00726c1461004a575b600080fd5b61004860048036038101906100439190610346565b610073565b005b34801561005657600080fd5b50610071600480360381019061006c91906103b1565b6101b4565b005b6000808273ffffffffffffffffffffffffffffffffffffffff163461138890607b6040516024016100a4919061048d565b6040516020818303038152906040527f24ccab8f000000000000000000000000000000000000000000000000000000007bffffffffffffffffffffffffffffffffffffffffffffffffffffffff19166020820180517bffffffffffffffffffffffffffffffffffffffffffffffffffffffff838183161783525050505060405161012e9190610535565b600060405180830381858888f193505050503d806000811461016c576040519150601f19603f3d011682016040523d82523d6000602084013e610171565b606091505b50915091507f13848c3e38f8886f3f5d2ad9dff80d8092c2bbb8efd5b887a99c2c6cfc09ac2a82826040516101a79291906105c2565b60405180910390a1505050565b6000808273ffffffffffffffffffffffffffffffffffffffff166040516024016040516020818303038152906040527f1dcc85ae000000000000000000000000000000000000000000000000000000007bffffffffffffffffffffffffffffffffffffffffffffffffffffffff19166020820180517bffffffffffffffffffffffffffffffffffffffffffffffffffffffff838183161783525050505060405161025e9190610535565b6000604051808303816000865af19150503d806000811461029b576040519150601f19603f3d011682016040523d82523d6000602084013e6102a0565b606091505b50915091507f13848c3e38f8886f3f5d2ad9dff80d8092c2bbb8efd5b887a99c2c6cfc09ac2a82826040516102d69291906105c2565b60405180910390a1505050565b600080fd5b600073ffffffffffffffffffffffffffffffffffffffff82169050919050565b6000610313826102e8565b9050919050565b61032381610308565b811461032e57600080fd5b50565b6000813590506103408161031a565b92915050565b60006020828403121561035c5761035b6102e3565b5b600061036a84828501610331565b91505092915050565b600061037e826102e8565b9050919050565b61038e81610373565b811461039957600080fd5b50565b6000813590506103ab81610385565b92915050565b6000602082840312156103c7576103c66102e3565b5b60006103d58482850161039c565b91505092915050565b600082825260208201905092915050565b7f63616c6c20666f6f000000000000000000000000000000000000000000000000600082015250565b60006104256008836103de565b9150610430826103ef565b602082019050919050565b6000819050919050565b600060ff82169050919050565b6000819050919050565b600061047761047261046d8461043b565b610452565b610445565b9050919050565b6104878161045c565b82525050565b600060408201905081810360008301526104a681610418565b90506104b5602083018461047e565b92915050565b600081519050919050565b600081905092915050565b60005b838110156104ef5780820151818401526020810190506104d4565b838111156104fe576000848401525b50505050565b600061050f826104bb565b61051981856104c6565b93506105298185602086016104d1565b80840191505092915050565b60006105418284610504565b915081905092915050565b60008115159050919050565b6105618161054c565b82525050565b600082825260208201905092915050565b6000601f19601f8301169050919050565b6000610594826104bb565b61059e8185610567565b93506105ae8185602086016104d1565b6105b781610578565b840191505092915050565b60006040820190506105d76000830185610558565b81810360208301526105e98184610589565b9050939250505056fea164736f6c6343000809000a",
      "opcodes": "PUSH1 0x80 PUSH1 0x40 MSTORE CALLVALUE DUP1 ISZERO PUSH2 0x10 JUMPI PUSH1 0x0 DUP1 REVERT JUMPDEST POP PUSH2 0x5FF DUP1 PUSH2 0x20 PUSH1 0x0 CODECOPY PUSH1 0x0 RETURN INVALID PUSH1 0x80 PUSH1 0x40 MSTORE PUSH1 0x4 CALLDATASIZE LT PUSH2 0x29 JUMPI PUSH1 0x0 CALLDATALOAD PUSH1 0xE0 SHR DUP1 PUSH4 0x87BA6179 EQ PUSH2 0x2E JUMPI DUP1 PUSH4 0xFF00726C EQ PUSH2 0x4A JUMPI JUMPDEST PUSH1 0x0 DUP1 REVERT JUMPDEST PUSH2 0x48 PUSH1 0x4 DUP1 CALLDATASIZE SUB DUP2 ADD SWAP1 PUSH2 0x43 SWAP2 SWAP1 PUSH2 0x346 JUMP JUMPDEST PUSH2 0x73 JUMP JUMPDEST STOP JUMPDEST CALLVALUE DUP1 ISZERO PUSH2 0x56 JUMPI PUSH1 0x0 DUP1 REVERT JUMPDEST POP PUSH2 0x71 PUSH1 0x4 DUP1 CALLDATASIZE SUB DUP2 ADD SWAP1 PUSH2 0x6C SWAP2 SWAP1 PUSH2 0x3B1 JUMP JUMPDEST PUSH2 0x1B4 JUMP JUMPDEST STOP JUMPDEST PUSH1 0x0 DUP1 DUP3 PUSH20 0xFFFFFFFFFFFFFFFFFFFFFFFFFFFFFFFFFFFFFFFF AND CALLVALUE PUSH2 0x1388 SWAP1 PUSH1 0x7B PUSH1 0x40 MLOAD PUSH1 0x24 ADD PUSH2 0xA4 SWAP2 SWAP1 PUSH2 0x48D JUMP JUMPDEST PUSH1 0x40 MLOAD PUSH1 0x20 DUP2 DUP4 SUB SUB DUP2 MSTORE SWAP1 PUSH1 0x40 MSTORE PUSH32 0x24CCAB8F00000000000000000000000000000000000000000000000000000000 PUSH28 0xFFFFFFFFFFFFFFFFFFFFFFFFFFFFFFFFFFFFFFFFFFFFFFFFFFFFFFFF NOT AND PUSH1 0x20 DUP3 ADD DUP1 MLOAD PUSH28 0xFFFFFFFFFFFFFFFFFFFFFFFFFFFFFFFFFFFFFFFFFFFFFFFFFFFFFFFF DUP4 DUP2 DUP4 AND OR DUP4 MSTORE POP POP POP POP PUSH1 0x40 MLOAD PUSH2 0x12E SWAP2 SWAP1 PUSH2 0x535 JUMP JUMPDEST PUSH1 0x0 PUSH1 0x40 MLOAD DUP1 DUP4 SUB DUP2 DUP6 DUP9 DUP9 CALL SWAP4 POP POP POP POP RETURNDATASIZE DUP1 PUSH1 0x0 DUP2 EQ PUSH2 0x16C JUMPI PUSH1 0x40 MLOAD SWAP2 POP PUSH1 0x1F NOT PUSH1 0x3F RETURNDATASIZE ADD AND DUP3 ADD PUSH1 0x40 MSTORE RETURNDATASIZE DUP3 MSTORE RETURNDATASIZE PUSH1 0x0 PUSH1 0x20 DUP5 ADD RETURNDATACOPY PUSH2 0x171 JUMP JUMPDEST PUSH1 0x60 SWAP2 POP JUMPDEST POP SWAP2 POP SWAP2 POP PUSH32 0x13848C3E38F8886F3F5D2AD9DFF80D8092C2BBB8EFD5B887A99C2C6CFC09AC2A DUP3 DUP3 PUSH1 0x40 MLOAD PUSH2 0x1A7 SWAP3 SWAP2 SWAP1 PUSH2 0x5C2 JUMP JUMPDEST PUSH1 0x40 MLOAD DUP1 SWAP2 SUB SWAP1 LOG1 POP POP POP JUMP JUMPDEST PUSH1 0x0 DUP1 DUP3 PUSH20 0xFFFFFFFFFFFFFFFFFFFFFFFFFFFFFFFFFFFFFFFF AND PUSH1 0x40 MLOAD PUSH1 0x24 ADD PUSH1 0x40 MLOAD PUSH1 0x20 DUP2 DUP4 SUB SUB DUP2 MSTORE SWAP1 PUSH1 0x40 MSTORE PUSH32 0x1DCC85AE00000000000000000000000000000000000000000000000000000000 PUSH28 0xFFFFFFFFFFFFFFFFFFFFFFFFFFFFFFFFFFFFFFFFFFFFFFFFFFFFFFFF NOT AND PUSH1 0x20 DUP3 ADD DUP1 MLOAD PUSH28 0xFFFFFFFFFFFFFFFFFFFFFFFFFFFFFFFFFFFFFFFFFFFFFFFFFFFFFFFF DUP4 DUP2 DUP4 AND OR DUP4 MSTORE POP POP POP POP PUSH1 0x40 MLOAD PUSH2 0x25E SWAP2 SWAP1 PUSH2 0x535 JUMP JUMPDEST PUSH1 0x0 PUSH1 0x40 MLOAD DUP1 DUP4 SUB DUP2 PUSH1 0x0 DUP7 GAS CALL SWAP2 POP POP RETURNDATASIZE DUP1 PUSH1 0x0 DUP2 EQ PUSH2 0x29B JUMPI PUSH1 0x40 MLOAD SWAP2 POP PUSH1 0x1F NOT PUSH1 0x3F RETURNDATASIZE ADD AND DUP3 ADD PUSH1 0x40 MSTORE RETURNDATASIZE DUP3 MSTORE RETURNDATASIZE PUSH1 0x0 PUSH1 0x20 DUP5 ADD RETURNDATACOPY PUSH2 0x2A0 JUMP JUMPDEST PUSH1 0x60 SWAP2 POP JUMPDEST POP SWAP2 POP SWAP2 POP PUSH32 0x13848C3E38F8886F3F5D2AD9DFF80D8092C2BBB8EFD5B887A99C2C6CFC09AC2A DUP3 DUP3 PUSH1 0x40 MLOAD PUSH2 0x2D6 SWAP3 SWAP2 SWAP1 PUSH2 0x5C2 JUMP JUMPDEST PUSH1 0x40 MLOAD DUP1 SWAP2 SUB SWAP1 LOG1 POP POP POP JUMP JUMPDEST PUSH1 0x0 DUP1 REVERT JUMPDEST PUSH1 0x0 PUSH20 0xFFFFFFFFFFFFFFFFFFFFFFFFFFFFFFFFFFFFFFFF DUP3 AND SWAP1 POP SWAP2 SWAP1 POP JUMP JUMPDEST PUSH1 0x0 PUSH2 0x313 DUP3 PUSH2 0x2E8 JUMP JUMPDEST SWAP1 POP SWAP2 SWAP1 POP JUMP JUMPDEST PUSH2 0x323 DUP2 PUSH2 0x308 JUMP JUMPDEST DUP2 EQ PUSH2 0x32E JUMPI PUSH1 0x0 DUP1 REVERT JUMPDEST POP JUMP JUMPDEST PUSH1 0x0 DUP2 CALLDATALOAD SWAP1 POP PUSH2 0x340 DUP2 PUSH2 0x31A JUMP JUMPDEST SWAP3 SWAP2 POP POP JUMP JUMPDEST PUSH1 0x0 PUSH1 0x20 DUP3 DUP5 SUB SLT ISZERO PUSH2 0x35C JUMPI PUSH2 0x35B PUSH2 0x2E3 JUMP JUMPDEST JUMPDEST PUSH1 0x0 PUSH2 0x36A DUP5 DUP3 DUP6 ADD PUSH2 0x331 JUMP JUMPDEST SWAP2 POP POP SWAP3 SWAP2 POP POP JUMP JUMPDEST PUSH1 0x0 PUSH2 0x37E DUP3 PUSH2 0x2E8 JUMP JUMPDEST SWAP1 POP SWAP2 SWAP1 POP JUMP JUMPDEST PUSH2 0x38E DUP2 PUSH2 0x373 JUMP JUMPDEST DUP2 EQ PUSH2 0x399 JUMPI PUSH1 0x0 DUP1 REVERT JUMPDEST POP JUMP JUMPDEST PUSH1 0x0 DUP2 CALLDATALOAD SWAP1 POP PUSH2 0x3AB DUP2 PUSH2 0x385 JUMP JUMPDEST SWAP3 SWAP2 POP POP JUMP JUMPDEST PUSH1 0x0 PUSH1 0x20 DUP3 DUP5 SUB SLT ISZERO PUSH2 0x3C7 JUMPI PUSH2 0x3C6 PUSH2 0x2E3 JUMP JUMPDEST JUMPDEST PUSH1 0x0 PUSH2 0x3D5 DUP5 DUP3 DUP6 ADD PUSH2 0x39C JUMP JUMPDEST SWAP2 POP POP SWAP3 SWAP2 POP POP JUMP JUMPDEST PUSH1 0x0 DUP3 DUP3 MSTORE PUSH1 0x20 DUP3 ADD SWAP1 POP SWAP3 SWAP2 POP POP JUMP JUMPDEST PUSH32 0x63616C6C20666F6F000000000000000000000000000000000000000000000000 PUSH1 0x0 DUP3 ADD MSTORE POP JUMP JUMPDEST PUSH1 0x0 PUSH2 0x425 PUSH1 0x8 DUP4 PUSH2 0x3DE JUMP JUMPDEST SWAP2 POP PUSH2 0x430 DUP3 PUSH2 0x3EF JUMP JUMPDEST PUSH1 0x20 DUP3 ADD SWAP1 POP SWAP2 SWAP1 POP JUMP JUMPDEST PUSH1 0x0 DUP2 SWAP1 POP SWAP2 SWAP1 POP JUMP JUMPDEST PUSH1 0x0 PUSH1 0xFF DUP3 AND SWAP1 POP SWAP2 SWAP1 POP JUMP JUMPDEST PUSH1 0x0 DUP2 SWAP1 POP SWAP2 SWAP1 POP JUMP JUMPDEST PUSH1 0x0 PUSH2 0x477 PUSH2 0x472 PUSH2 0x46D DUP5 PUSH2 0x43B JUMP JUMPDEST PUSH2 0x452 JUMP JUMPDEST PUSH2 0x445 JUMP JUMPDEST SWAP1 POP SWAP2 SWAP1 POP JUMP JUMPDEST PUSH2 0x487 DUP2 PUSH2 0x45C JUMP JUMPDEST DUP3 MSTORE POP POP JUMP JUMPDEST PUSH1 0x0 PUSH1 0x40 DUP3 ADD SWAP1 POP DUP2 DUP2 SUB PUSH1 0x0 DUP4 ADD MSTORE PUSH2 0x4A6 DUP2 PUSH2 0x418 JUMP JUMPDEST SWAP1 POP PUSH2 0x4B5 PUSH1 0x20 DUP4 ADD DUP5 PUSH2 0x47E JUMP JUMPDEST SWAP3 SWAP2 POP POP JUMP JUMPDEST PUSH1 0x0 DUP2 MLOAD SWAP1 POP SWAP2 SWAP1 POP JUMP JUMPDEST PUSH1 0x0 DUP2 SWAP1 POP SWAP3 SWAP2 POP POP JUMP JUMPDEST PUSH1 0x0 JUMPDEST DUP4 DUP2 LT ISZERO PUSH2 0x4EF JUMPI DUP1 DUP3 ADD MLOAD DUP2 DUP5 ADD MSTORE PUSH1 0x20 DUP2 ADD SWAP1 POP PUSH2 0x4D4 JUMP JUMPDEST DUP4 DUP2 GT ISZERO PUSH2 0x4FE JUMPI PUSH1 0x0 DUP5 DUP5 ADD MSTORE JUMPDEST POP POP POP POP JUMP JUMPDEST PUSH1 0x0 PUSH2 0x50F DUP3 PUSH2 0x4BB JUMP JUMPDEST PUSH2 0x519 DUP2 DUP6 PUSH2 0x4C6 JUMP JUMPDEST SWAP4 POP PUSH2 0x529 DUP2 DUP6 PUSH1 0x20 DUP7 ADD PUSH2 0x4D1 JUMP JUMPDEST DUP1 DUP5 ADD SWAP2 POP POP SWAP3 SWAP2 POP POP JUMP JUMPDEST PUSH1 0x0 PUSH2 0x541 DUP3 DUP5 PUSH2 0x504 JUMP JUMPDEST SWAP2 POP DUP2 SWAP1 POP SWAP3 SWAP2 POP POP JUMP JUMPDEST PUSH1 0x0 DUP2 ISZERO ISZERO SWAP1 POP SWAP2 SWAP1 POP JUMP JUMPDEST PUSH2 0x561 DUP2 PUSH2 0x54C JUMP JUMPDEST DUP3 MSTORE POP POP JUMP JUMPDEST PUSH1 0x0 DUP3 DUP3 MSTORE PUSH1 0x20 DUP3 ADD SWAP1 POP SWAP3 SWAP2 POP POP JUMP JUMPDEST PUSH1 0x0 PUSH1 0x1F NOT PUSH1 0x1F DUP4 ADD AND SWAP1 POP SWAP2 SWAP1 POP JUMP JUMPDEST PUSH1 0x0 PUSH2 0x594 DUP3 PUSH2 0x4BB JUMP JUMPDEST PUSH2 0x59E DUP2 DUP6 PUSH2 0x567 JUMP JUMPDEST SWAP4 POP PUSH2 0x5AE DUP2 DUP6 PUSH1 0x20 DUP7 ADD PUSH2 0x4D1 JUMP JUMPDEST PUSH2 0x5B7 DUP2 PUSH2 0x578 JUMP JUMPDEST DUP5 ADD SWAP2 POP POP SWAP3 SWAP2 POP POP JUMP JUMPDEST PUSH1 0x0 PUSH1 0x40 DUP3 ADD SWAP1 POP PUSH2 0x5D7 PUSH1 0x0 DUP4 ADD DUP6 PUSH2 0x558 JUMP JUMPDEST DUP2 DUP2 SUB PUSH1 0x20 DUP4 ADD MSTORE PUSH2 0x5E9 DUP2 DUP5 PUSH2 0x589 JUMP JUMPDEST SWAP1 POP SWAP4 SWAP3 POP POP POP JUMP INVALID LOG1 PUSH5 0x736F6C6343 STOP ADDMOD MULMOD STOP EXP "
    },
    "gasEstimates": {
      "creation": {
        "codeDepositCost": "307000",
        "executionCost": "343",
        "totalCost": "307343"
      },
      "external": {
        "testCallDoesNotExist(address)": "infinite",
        "testCallFoo(address)": "infinite"
      }
    },
    "methodIdentifiers": {
      "testCallDoesNotExist(address)": "ff00726c",
      "testCallFoo(address)": "87ba6179"
    }
  },
  "storageLayout": {
    "storage": [],
    "types": null
  },
  "userdoc": {
    "kind": "user",
    "methods": {},
    "version": 1
  }
}