{
  "abi": [
    {
      "anonymous": false,
      "inputs": [
        {
          "indexed": false,
          "internalType": "bool",
          "name": "success",
          "type": "bool"
        },
        {
          "indexed": false,
          "internalType": "bytes",
          "name": "data",
          "type": "bytes"
        }
      ],
      "name": "Response",
      "type": "event"
    },
    {
      "inputs": [
        {
          "internalType": "address",
          "name": "_addr",
          "type": "address"
        }
      ],
      "name": "testCallDoesNotExist",
      "outputs": [],
      "stateMutability": "nonpayable",
      "type": "function"
    },
    {
      "inputs": [
        {
          "internalType": "address payable",
          "name": "_addr",
          "type": "address"
        }
      ],
      "name": "testCallFoo",
      "outputs": [],
      "stateMutability": "payable",
      "type": "function"
    }
  ],
  "devdoc": {
    "kind": "dev",
    "methods": {},
    "version": 1
  },
  "evm": {
    "assembly": "    /* \"__contract__.sol\":493:1376  contract Caller {... */\n  mstore(0x40, 0x80)\n  callvalue\n  dup1\n  iszero\n  tag_1\n  jumpi\n  0x00\n  dup1\n  revert\ntag_1:\n  pop\n  dataSize(sub_0)\n  dup1\n  dataOffset(sub_0)\n  0x00\n  codecopy\n  0x00\n  return\nstop\n\nsub_0: assembly {\n        /* \"__contract__.sol\":493:1376  contract Caller {... */\n      mstore(0x40, 0x80)\n      jumpi(tag_1, lt(calldatasize, 0x04))\n      shr(0xe0, calldataload(0x00))\n      dup1\n      0x87ba6179\n      eq\n      tag_2\n      jumpi\n      dup1\n      0xff00726c\n      eq\n      tag_3\n      jumpi\n    tag_1:\n      0x00\n      dup1\n      revert\n        /* \"__contract__.sol\":715:1061  function testCallFoo(address payable _addr) public payable {... */\n    tag_2:\n      tag_4\n      tag_5\n      calldatasize\n      0x04\n      tag_6\n      jump\t// in\n    tag_5:\n      tag_7\n      jump\t// in\n    tag_4:\n      stop\n        /* \"__contract__.sol\":1148:1373  function testCallDoesNotExist(address _addr) public {... */\n    tag_3:\n      callvalue\n      dup1\n      iszero\n      tag_8\n      jumpi\n      0x00\n      dup1\n      revert\n    tag_8:\n      pop\n      tag_4\n      tag_10\n      calldatasize\n      0x04\n      tag_6\n      jump\t// in\n    tag_10:\n      tag_12\n      jump\t// in\n        /* \"__contract__.sol\":715:1061  function testCallFoo(address payable _addr) public payable {... */\n    tag_7:\n        /* \"__contract__.sol\":938:1001  abi.encodeWithSignature(\"foo(string,uint256)\", \"call foo\", 123) */\n      0x40\n      dup1\n      mload\n      0x24\n      dup2\n      add\n        /* \"#utility.yul\":906:927   */\n      swap2\n      swap1\n      swap2\n      mstore\n        /* \"#utility.yul\":963:964   */\n      0x08\n        /* \"#utility.yul\":943:961   */\n      0x64\n      dup3\n      add\n        /* \"#utility.yul\":936:965   */\n      mstore\n      shl(0xc0, 0x63616c6c20666f6f)\n        /* \"#utility.yul\":981:999   */\n      0x84\n      dup3\n      add\n        /* \"#utility.yul\":974:1012   */\n      mstore\n        /* \"__contract__.sol\":997:1000  123 */\n      0x7b\n        /* \"#utility.yul\":1064:1084   */\n      0x44\n      dup3\n      add\n        /* \"#utility.yul\":1057:1104   */\n      mstore\n        /* \"__contract__.sol\":849:861  bool success */\n      0x00\n      swap1\n      dup2\n      swap1\n      sub(shl(0xa0, 0x01), 0x01)\n        /* \"__contract__.sol\":884:894  _addr.call */\n      dup5\n      and\n      swap1\n        /* \"__contract__.sol\":918:922  5000 */\n      0x1388\n      swap1\n        /* \"__contract__.sol\":902:911  msg.value */\n      callvalue\n      swap1\n        /* \"#utility.yul\":1029:1048   */\n      0xa4\n      add\n        /* \"__contract__.sol\":938:1001  abi.encodeWithSignature(\"foo(string,uint256)\", \"call foo\", 123) */\n      0x40\n      dup1\n      mload\n      not(0x1f)\n      dup2\n      dup5\n      sub\n      add\n      dup2\n      mstore\n      swap2\n      dup2\n      mstore\n      0x20\n      dup3\n      add\n      dup1\n      mload\n      sub(shl(0xe0, 0x01), 0x01)\n      and\n      shl(0xe0, 0x24ccab8f)\n      or\n      swap1\n      mstore\n        /* \"__contract__.sol\":884:1012  _addr.call{value: msg.value, gas: 5000}(... */\n      mload\n      tag_16\n      swap2\n        /* \"__contract__.sol\":938:1001  abi.encodeWithSignature(\"foo(string,uint256)\", \"call foo\", 123) */\n      swap1\n        /* \"__contract__.sol\":884:1012  _addr.call{value: msg.value, gas: 5000}(... */\n      tag_17\n      jump\t// in\n    tag_16:\n      0x00\n      mload(0x40)\n      dup1\n      dup4\n      sub\n      dup2\n      dup6\n      dup9\n      dup9\n      call\n      swap4\n      pop\n      pop\n      pop\n      pop\n      returndatasize\n      dup1\n      0x00\n      dup2\n      eq\n      tag_20\n      jumpi\n      mload(0x40)\n      swap2\n      pop\n      and(add(returndatasize, 0x3f), not(0x1f))\n      dup3\n      add\n      0x40\n      mstore\n      returndatasize\n      dup3\n      mstore\n      returndatasize\n      0x00\n      0x20\n      dup5\n      add\n      returndatacopy\n      jump(tag_19)\n    tag_20:\n      0x60\n      swap2\n      pop\n    tag_19:\n      pop\n        /* \"__contract__.sol\":848:1012  (bool success, bytes memory data) = _addr.call{value: msg.value, gas: 5000}(... */\n      swap2\n      pop\n      swap2\n      pop\n        /* \"__contract__.sol\":1030:1053  Response(success, data) */\n      0x13848c3e38f8886f3f5d2ad9dff80d8092c2bbb8efd5b887a99c2c6cfc09ac2a\n        /* \"__contract__.sol\":1039:1046  success */\n      dup3\n        /* \"__contract__.sol\":1048:1052  data */\n      dup3\n        /* \"__contract__.sol\":1030:1053  Response(success, data) */\n      mload(0x40)\n      tag_21\n      swap3\n      swap2\n      swap1\n      tag_22\n      jump\t// in\n    tag_21:\n      mload(0x40)\n      dup1\n      swap2\n      sub\n      swap1\n      log1\n        /* \"__contract__.sol\":774:1061  {... */\n      pop\n      pop\n        /* \"__contract__.sol\":715:1061  function testCallFoo(address payable _addr) public payable {... */\n      pop\n      jump\t// out\n        /* \"__contract__.sol\":1148:1373  function testCallDoesNotExist(address _addr) public {... */\n    tag_12:\n        /* \"__contract__.sol\":1272:1313  abi.encodeWithSignature(\"doesNotExist()\") */\n      0x40\n      dup1\n      mload\n      0x04\n      dup2\n      mstore\n      0x24\n      dup2\n      add\n      dup3\n      mstore\n      0x20\n      dup2\n      add\n      dup1\n      mload\n      sub(shl(0xe0, 0x01), 0x01)\n      and\n      shl(0xe1, 0x0ee642d7)\n      or\n      swap1\n      mstore\n        /* \"__contract__.sol\":1247:1324  _addr.call(... */\n      swap1\n      mload\n        /* \"__contract__.sol\":1212:1224  bool success */\n      0x00\n      swap2\n      dup3\n      swap2\n      sub(shl(0xa0, 0x01), 0x01)\n        /* \"__contract__.sol\":1247:1257  _addr.call */\n      dup6\n      and\n      swap2\n        /* \"__contract__.sol\":1247:1324  _addr.call(... */\n      tag_24\n      swap2\n      tag_17\n      jump\t// in\n    tag_24:\n      0x00\n      mload(0x40)\n      dup1\n      dup4\n      sub\n      dup2\n      0x00\n      dup7\n      gas\n      call\n      swap2\n      pop\n      pop\n      returndatasize\n      dup1\n      0x00\n      dup2\n      eq\n      tag_20\n      jumpi\n      mload(0x40)\n      swap2\n      pop\n      and(add(returndatasize, 0x3f), not(0x1f))\n      dup3\n      add\n      0x40\n      mstore\n      returndatasize\n      dup3\n      mstore\n      returndatasize\n      0x00\n      0x20\n      dup5\n      add\n      returndatacopy\n      jump(tag_19)\n        /* \"#utility.yul\":14:153   */\n    tag_29:\n      sub(shl(0xa0, 0x01), 0x01)\n        /* \"#utility.yul\":97:128   */\n      dup2\n      and\n        /* \"#utility.yul\":87:129   */\n      dup2\n      eq\n        /* \"#utility.yul\":77:147   */\n      tag_33\n      jumpi\n        /* \"#utility.yul\":143:144   */\n      0x00\n        /* \"#utility.yul\":140:141   */\n      dup1\n        /* \"#utility.yul\":133:145   */\n      revert\n        /* \"#utility.yul\":77:147   */\n    tag_33:\n        /* \"#utility.yul\":14:153   */\n      pop\n      jump\t// out\n        /* \"#utility.yul\":158:421   */\n    tag_6:\n        /* \"#utility.yul\":225:231   */\n      0x00\n        /* \"#utility.yul\":278:280   */\n      0x20\n        /* \"#utility.yul\":266:275   */\n      dup3\n        /* \"#utility.yul\":257:264   */\n      dup5\n        /* \"#utility.yul\":253:276   */\n      sub\n        /* \"#utility.yul\":249:281   */\n      slt\n        /* \"#utility.yul\":246:298   */\n      iszero\n      tag_35\n      jumpi\n        /* \"#utility.yul\":294:295   */\n      0x00\n        /* \"#utility.yul\":291:292   */\n      dup1\n        /* \"#utility.yul\":284:296   */\n      revert\n        /* \"#utility.yul\":246:298   */\n    tag_35:\n        /* \"#utility.yul\":333:342   */\n      dup2\n        /* \"#utility.yul\":320:343   */\n      calldataload\n        /* \"#utility.yul\":352:391   */\n      tag_36\n        /* \"#utility.yul\":385:390   */\n      dup2\n        /* \"#utility.yul\":352:391   */\n      tag_29\n      jump\t// in\n    tag_36:\n        /* \"#utility.yul\":410:415   */\n      swap4\n        /* \"#utility.yul\":158:421   */\n      swap3\n      pop\n      pop\n      pop\n      jump\t// out\n        /* \"#utility.yul\":1115:1373   */\n    tag_30:\n        /* \"#utility.yul\":1187:1188   */\n      0x00\n        /* \"#utility.yul\":1197:1310   */\n    tag_42:\n        /* \"#utility.yul\":1211:1217   */\n      dup4\n        /* \"#utility.yul\":1208:1209   */\n      dup2\n        /* \"#utility.yul\":1205:1218   */\n      lt\n        /* \"#utility.yul\":1197:1310   */\n      iszero\n      tag_44\n      jumpi\n        /* \"#utility.yul\":1287:1298   */\n      dup2\n      dup2\n      add\n        /* \"#utility.yul\":1281:1299   */\n      mload\n        /* \"#utility.yul\":1268:1279   */\n      dup4\n      dup3\n      add\n        /* \"#utility.yul\":1261:1300   */\n      mstore\n        /* \"#utility.yul\":1233:1235   */\n      0x20\n        /* \"#utility.yul\":1226:1236   */\n      add\n        /* \"#utility.yul\":1197:1310   */\n      jump(tag_42)\n    tag_44:\n        /* \"#utility.yul\":1328:1334   */\n      dup4\n        /* \"#utility.yul\":1325:1326   */\n      dup2\n        /* \"#utility.yul\":1322:1335   */\n      gt\n        /* \"#utility.yul\":1319:1367   */\n      iszero\n      tag_45\n      jumpi\n        /* \"#utility.yul\":1363:1364   */\n      0x00\n        /* \"#utility.yul\":1354:1360   */\n      dup5\n        /* \"#utility.yul\":1349:1352   */\n      dup5\n        /* \"#utility.yul\":1345:1361   */\n      add\n        /* \"#utility.yul\":1338:1365   */\n      mstore\n        /* \"#utility.yul\":1319:1367   */\n    tag_45:\n      pop\n        /* \"#utility.yul\":1115:1373   */\n      pop\n      pop\n      pop\n      jump\t// out\n        /* \"#utility.yul\":1378:1652   */\n    tag_17:\n        /* \"#utility.yul\":1507:1510   */\n      0x00\n        /* \"#utility.yul\":1545:1551   */\n      dup3\n        /* \"#utility.yul\":1539:1552   */\n      mload\n        /* \"#utility.yul\":1561:1614   */\n      tag_47\n        /* \"#utility.yul\":1607:1613   */\n      dup2\n        /* \"#utility.yul\":1602:1605   */\n      dup5\n        /* \"#utility.yul\":1595:1599   */\n      0x20\n        /* \"#utility.yul\":1587:1593   */\n      dup8\n        /* \"#utility.yul\":1583:1600   */\n      add\n        /* \"#utility.yul\":1561:1614   */\n      tag_30\n      jump\t// in\n    tag_47:\n        /* \"#utility.yul\":1630:1646   */\n      swap2\n      swap1\n      swap2\n      add\n      swap3\n        /* \"#utility.yul\":1378:1652   */\n      swap2\n      pop\n      pop\n      jump\t// out\n        /* \"#utility.yul\":1657:2119   */\n    tag_22:\n        /* \"#utility.yul\":1840:1846   */\n      dup3\n        /* \"#utility.yul\":1833:1847   */\n      iszero\n        /* \"#utility.yul\":1826:1848   */\n      iszero\n        /* \"#utility.yul\":1815:1824   */\n      dup2\n        /* \"#utility.yul\":1808:1849   */\n      mstore\n        /* \"#utility.yul\":1885:1887   */\n      0x40\n        /* \"#utility.yul\":1880:1882   */\n      0x20\n        /* \"#utility.yul\":1869:1878   */\n      dup3\n        /* \"#utility.yul\":1865:1883   */\n      add\n        /* \"#utility.yul\":1858:1888   */\n      mstore\n        /* \"#utility.yul\":1789:1793   */\n      0x00\n        /* \"#utility.yul\":1917:1923   */\n      dup3\n        /* \"#utility.yul\":1911:1924   */\n      mload\n        /* \"#utility.yul\":1960:1966   */\n      dup1\n        /* \"#utility.yul\":1955:1957   */\n      0x40\n        /* \"#utility.yul\":1944:1953   */\n      dup5\n        /* \"#utility.yul\":1940:1958   */\n      add\n        /* \"#utility.yul\":1933:1967   */\n      mstore\n        /* \"#utility.yul\":1976:2042   */\n      tag_49\n        /* \"#utility.yul\":2035:2041   */\n      dup2\n        /* \"#utility.yul\":2030:2032   */\n      0x60\n        /* \"#utility.yul\":2019:2028   */\n      dup6\n        /* \"#utility.yul\":2015:2033   */\n      add\n        /* \"#utility.yul\":2010:2012   */\n      0x20\n        /* \"#utility.yul\":2002:2008   */\n      dup8\n        /* \"#utility.yul\":1998:2013   */\n      add\n        /* \"#utility.yul\":1976:2042   */\n      tag_30\n      jump\t// in\n    tag_49:\n        /* \"#utility.yul\":2103:2105   */\n      0x1f\n        /* \"#utility.yul\":2082:2097   */\n      add\n      not(0x1f)\n        /* \"#utility.yul\":2078:2107   */\n      and\n        /* \"#utility.yul\":2063:2108   */\n      swap2\n      swap1\n      swap2\n      add\n        /* \"#utility.yul\":2110:2112   */\n      0x60\n        /* \"#utility.yul\":2059:2113   */\n      add\n      swap4\n        /* \"#utility.yul\":1657:2119   */\n      swap3\n      pop\n      pop\n      pop\n      jump\t// out\n\n    auxdata: 0xa164736f6c6343000809000a\n}\n",
    "bytecode": {
      "linkReferences": {},
      "object": "608060405234801561001057600080fd5b506102b3806100206000396000f3fe6080604052600436106100295760003560e01c806387ba61791461002e578063ff00726c14610043575b600080fd5b61004161003c3660046101fa565b610063565b005b34801561004f57600080fd5b5061004161005e3660046101fa565b610162565b604080516024810191909152600860648201526763616c6c20666f6f60c01b6084820152607b604482015260009081906001600160a01b0384169061138890349060a40160408051601f198184030181529181526020820180516001600160e01b03166324ccab8f60e01b179052516100dc919061024e565b600060405180830381858888f193505050503d806000811461011a576040519150601f19603f3d011682016040523d82523d6000602084013e61011f565b606091505b50915091507f13848c3e38f8886f3f5d2ad9dff80d8092c2bbb8efd5b887a99c2c6cfc09ac2a828260405161015592919061026a565b60405180910390a1505050565b60408051600481526024810182526020810180516001600160e01b0316630ee642d760e11b179052905160009182916001600160a01b038516916101a59161024e565b6000604051808303816000865af19150503d806000811461011a576040519150601f19603f3d011682016040523d82523d6000602084013e61011f565b6001600160a01b03811681146101f757600080fd5b50565b60006020828403121561020c57600080fd5b8135610217816101e2565b9392505050565b60005b83811015610239578181015183820152602001610221565b83811115610248576000848401525b50505050565b6000825161026081846020870161021e565b9190910192915050565b8215158152604060208201526000825180604084015261029181606085016020870161021e565b601f01601f191691909101606001939250505056fea164736f6c6343000809000a",
      "opcodes": "PUSH1 0x80 PUSH1 0x40 MSTORE CALLVALUE DUP1 ISZERO PUSH2 0x10 JUMPI PUSH1 0x0 DUP1 REVERT JUMPDEST POP PUSH2 0x2B3 DUP1 PUSH2 0x20 PUSH1 0x0 CODECOPY PUSH1 0x0 RETURN INVALID PUSH1 0x80 PUSH1 0x40 MSTORE PUSH1 0x4 CALLDATASIZE LT PUSH2 0x29 JUMPI PUSH1 0x0 CALLDATALOAD PUSH1 0xE0 SHR DUP1 PUSH4 0x87BA6179 EQ PUSH2 0x2E JUMPI DUP1 PUSH4 0xFF00726C EQ PUSH2 0x43 JUMPI JUMPDEST PUSH1 0x0 DUP1 REVERT JUMPDEST PUSH2 0x41 PUSH2 0x3C CALLDATASIZE PUSH1 0x4 PUSH2 0x1FA JUMP JUMPDEST PUSH2 0x63 JUMP JUMPDEST STOP JUMPDEST CALLVALUE DUP1 ISZERO PUSH2 0x4F JUMPI PUSH1 0x0 DUP1 REVERT JUMPDEST POP PUSH2 0x41 PUSH2 0x5E CALLDATASIZE PUSH1 0x4 PUSH2 0x1FA JUMP JUMPDEST PUSH2 0x162 JUMP JUMPDEST PUSH1 0x40 DUP1 MLOAD PUSH1 0x24 DUP2 ADD SWAP2 SWAP1 SWAP2 MSTORE PUSH1 0x8 PUSH1 0x64 DUP3 ADD MSTORE PUSH8 0x63616C6C20666F6F PUSH1 0xC0 SHL PUSH1 0x84 DUP3 ADD MSTORE PUSH1 0x7B PUSH1 0x44 DUP3 ADD MSTORE PUSH1 0x0 SWAP1 DUP2 SWAP1 PUSH1 0x1 PUSH1 0x1 PUSH1 0xA0 SHL SUB DUP5 AND SWAP1 PUSH2 0x1388 SWAP1 CALLVALUE SWAP1 PUSH1 0xA4 ADD PUSH1 0x40 DUP1 MLOAD PUSH1 0x1F NOT DUP2 DUP5 SUB ADD DUP2 MSTORE SWAP2 DUP2 MSTORE PUSH1 0x20 DUP3 ADD DUP1 MLOAD PUSH1 0x1 PUSH1 0x1 PUSH1 0xE0 SHL SUB AND PUSH4 0x24CCAB8F PUSH1 0xE0 SHL OR SWAP1 MSTORE MLOAD PUSH2 0xDC SWAP2 SWAP1 PUSH2 0x24E JUMP JUMPDEST PUSH1 0x0 PUSH1 0x40 MLOAD DUP1 DUP4 SUB DUP2 DUP6 DUP9 DUP9 CALL SWAP4 POP POP POP POP RETURNDATASIZE DUP1 PUSH1 0x0 DUP2 EQ PUSH2 0x11A JUMPI PUSH1 0x40 MLOAD SWAP2 POP PUSH1 0x1F NOT PUSH1 0x3F RETURNDATASIZE ADD AND DUP3 ADD PUSH1 0x40 MSTORE RETURNDATASIZE DUP3 MSTORE RETURNDATASIZE PUSH1 0x0 PUSH1 0x20 DUP5 ADD RETURNDATACOPY PUSH2 0x11F JUMP JUMPDEST PUSH1 0x60 SWAP2 POP JUMPDEST POP SWAP2 POP SWAP2 POP PUSH32 0x13848C3E38F8886F3F5D2AD9DFF80D8092C2BBB8EFD5B887A99C2C6CFC09AC2A DUP3 DUP3 PUSH1 0x40 MLOAD PUSH2 0x155 SWAP3 SWAP2 SWAP1 PUSH2 0x26A JUMP JUMPDEST PUSH1 0x40 MLOAD DUP1 SWAP2 SUB SWAP1 LOG1 POP POP POP JUMP JUMPDEST PUSH1 0x40 DUP1 MLOAD PUSH1 0x4 DUP2 MSTORE PUSH1 0x24 DUP2 ADD DUP3 MSTORE PUSH1 0x20 DUP2 ADD DUP1 MLOAD PUSH1 0x1 PUSH1 0x1 PUSH1 0xE0 SHL SUB AND PUSH4 0xEE642D7 PUSH1 0xE1 SHL OR SWAP1 MSTORE SWAP1 MLOAD PUSH1 0x0 SWAP2 DUP3 SWAP2 PUSH1 0x1 PUSH1 0x1 PUSH1 0xA0 SHL SUB DUP6 AND SWAP2 PUSH2 0x1A5 SWAP2 PUSH2 0x24E JUMP JUMPDEST PUSH1 0x0 PUSH1 0x40 MLOAD DUP1 DUP4 SUB DUP2 PUSH1 0x0 DUP7 GAS CALL SWAP2 POP POP RETURNDATASIZE DUP1 PUSH1 0x0 DUP2 EQ PUSH2 0x11A JUMPI PUSH1 0x40 MLOAD SWAP2 POP PUSH1 0x1F NOT PUSH1 0x3F RETURNDATASIZE ADD AND DUP3 ADD PUSH1 0x40 MSTORE RETURNDATASIZE DUP3 MSTORE RETURNDATASIZE PUSH1 0x0 PUSH1 0x20 DUP5 ADD RETURNDATACOPY PUSH2 0x11F JUMP JUMPDEST PUSH1 0x1 PUSH1 0x1 PUSH1 0xA0 SHL SUB DUP2 AND DUP2 EQ PUSH2 0x1F7 JUMPI PUSH1 0x0 DUP1 REVERT JUMPDEST POP JUMP JUMPDEST PUSH1 0x0 PUSH1 0x20 DUP3 DUP5 SUB SLT ISZERO PUSH2 0x20C JUMPI PUSH1 0x0 DUP1 REVERT JUMPDEST DUP2 CALLDATALOAD PUSH2 0x217 DUP2 PUSH2 0x1E2 JUMP JUMPDEST SWAP4 SWAP3 POP POP POP JUMP JUMPDEST PUSH1 0x0 JUMPDEST DUP4 DUP2 LT ISZERO PUSH2 0x239 JUMPI DUP2 DUP2 ADD MLOAD DUP4 DUP3 ADD MSTORE PUSH1 0x20 ADD PUSH2 0x221 JUMP JUMPDEST DUP4 DUP2 GT ISZERO PUSH2 0x248 JUMPI PUSH1 0x0 DUP5 DUP5 ADD MSTORE JUMPDEST POP POP POP POP JUMP JUMPDEST PUSH1 0x0 DUP3 MLOAD PUSH2 0x260 DUP2 DUP5 PUSH1 0x20 DUP8 ADD PUSH2 0x21E JUMP JUMPDEST SWAP2 SWAP1 SWAP2 ADD SWAP3 SWAP2 POP POP JUMP JUMPDEST DUP3 ISZERO ISZERO DUP2 MSTORE PUSH1 0x40 PUSH1 0x20 DUP3 ADD MSTORE PUSH1 0x0 DUP3 MLOAD DUP1 PUSH1 0x40 DUP5 ADD MSTORE PUSH2 0x291 DUP2 PUSH1 0x60 DUP6 ADD PUSH1 0x20 DUP8 ADD PUSH2 0x21E JUMP JUMPDEST PUSH1 0x1F ADD PUSH1 0x1F NOT AND SWAP2 SWAP1 SWAP2 ADD PUSH1 0x60 ADD SWAP4 SWAP3 POP POP POP JUMP INVALID LOG1 PUSH5 0x736F6C6343 STOP ADDMOD MULMOD STOP EXP "
    },
    "gasEstimates": {
      "creation": {
        "codeDepositCost": "138200",
        "executionCost": "183",
        "totalCost": "138383"
      },
      "external": {
        "testCallDoesNotExist(address)": "infinite",
        "testCallFoo(address)": "infinite"
      }
    },
    "methodIdentifiers": {
      "testCallDoesNotExist(address)": "ff00726c",
      "testCallFoo(address)": "87ba6179"
    }
  },
  "storageLayout": {
    "storage": [],
    "types": null
  },
  "userdoc": {
    "kind": "user",
    "methods": {},
    "version": 1
  }
}